{
  "contractName": "DumpBlockAccount",
  "abi": [
    {
      "inputs": [
        {
          "internalType": "address",
          "name": "_token",
          "type": "address"
        }
      ],
      "stateMutability": "nonpayable",
      "type": "constructor"
    },
    {
      "anonymous": false,
      "inputs": [
        {
          "indexed": true,
          "internalType": "address",
          "name": "owner",
          "type": "address"
        },
        {
          "indexed": true,
          "internalType": "address",
          "name": "spender",
          "type": "address"
        },
        {
          "indexed": false,
          "internalType": "uint256",
          "name": "value",
          "type": "uint256"
        }
      ],
      "name": "Approval",
      "type": "event"
    },
    {
      "anonymous": false,
      "inputs": [
        {
          "indexed": true,
          "internalType": "address",
          "name": "from",
          "type": "address"
        },
        {
          "indexed": true,
          "internalType": "address",
          "name": "to",
          "type": "address"
        },
        {
          "indexed": false,
          "internalType": "uint256",
          "name": "value",
          "type": "uint256"
        }
      ],
      "name": "Transfer",
      "type": "event"
    },
    {
      "inputs": [
        {
          "internalType": "address",
          "name": "owner",
          "type": "address"
        },
        {
          "internalType": "address",
          "name": "spender",
          "type": "address"
        }
      ],
      "name": "allowance",
      "outputs": [
        {
          "internalType": "uint256",
          "name": "",
          "type": "uint256"
        }
      ],
      "stateMutability": "view",
      "type": "function",
      "constant": true
    },
    {
      "inputs": [
        {
          "internalType": "address",
          "name": "spender",
          "type": "address"
        },
        {
          "internalType": "uint256",
          "name": "amount",
          "type": "uint256"
        }
      ],
      "name": "approve",
      "outputs": [
        {
          "internalType": "bool",
          "name": "",
          "type": "bool"
        }
      ],
      "stateMutability": "nonpayable",
      "type": "function"
    },
    {
      "inputs": [
        {
          "internalType": "address",
          "name": "account",
          "type": "address"
        }
      ],
      "name": "balanceOf",
      "outputs": [
        {
          "internalType": "uint256",
          "name": "",
          "type": "uint256"
        }
      ],
      "stateMutability": "view",
      "type": "function",
      "constant": true
    },
    {
      "inputs": [],
      "name": "decimals",
      "outputs": [
        {
          "internalType": "uint8",
          "name": "",
          "type": "uint8"
        }
      ],
      "stateMutability": "view",
      "type": "function",
      "constant": true
    },
    {
      "inputs": [
        {
          "internalType": "address",
          "name": "spender",
          "type": "address"
        },
        {
          "internalType": "uint256",
          "name": "subtractedValue",
          "type": "uint256"
        }
      ],
      "name": "decreaseAllowance",
      "outputs": [
        {
          "internalType": "bool",
          "name": "",
          "type": "bool"
        }
      ],
      "stateMutability": "nonpayable",
      "type": "function"
    },
    {
      "inputs": [
        {
          "internalType": "address",
          "name": "spender",
          "type": "address"
        },
        {
          "internalType": "uint256",
          "name": "addedValue",
          "type": "uint256"
        }
      ],
      "name": "increaseAllowance",
      "outputs": [
        {
          "internalType": "bool",
          "name": "",
          "type": "bool"
        }
      ],
      "stateMutability": "nonpayable",
      "type": "function"
    },
    {
      "inputs": [],
      "name": "name",
      "outputs": [
        {
          "internalType": "string",
          "name": "",
          "type": "string"
        }
      ],
      "stateMutability": "view",
      "type": "function",
      "constant": true
    },
    {
      "inputs": [],
      "name": "symbol",
      "outputs": [
        {
          "internalType": "string",
          "name": "",
          "type": "string"
        }
      ],
      "stateMutability": "view",
      "type": "function",
      "constant": true
    },
    {
      "inputs": [],
      "name": "token",
      "outputs": [
        {
          "internalType": "contract IERC20",
          "name": "",
          "type": "address"
        }
      ],
      "stateMutability": "view",
      "type": "function",
      "constant": true
    },
    {
      "inputs": [],
      "name": "totalSupply",
      "outputs": [
        {
          "internalType": "uint256",
          "name": "",
          "type": "uint256"
        }
      ],
      "stateMutability": "view",
      "type": "function",
      "constant": true
    },
    {
      "inputs": [
        {
          "internalType": "address",
          "name": "to",
          "type": "address"
        },
        {
          "internalType": "uint256",
          "name": "amount",
          "type": "uint256"
        }
      ],
      "name": "transfer",
      "outputs": [
        {
          "internalType": "bool",
          "name": "",
          "type": "bool"
        }
      ],
      "stateMutability": "nonpayable",
      "type": "function"
    },
    {
      "inputs": [
        {
          "internalType": "address",
          "name": "from",
          "type": "address"
        },
        {
          "internalType": "address",
          "name": "to",
          "type": "address"
        },
        {
          "internalType": "uint256",
          "name": "amount",
          "type": "uint256"
        }
      ],
      "name": "transferFrom",
      "outputs": [
        {
          "internalType": "bool",
          "name": "",
          "type": "bool"
        }
      ],
      "stateMutability": "nonpayable",
      "type": "function"
    },
    {
      "inputs": [],
      "name": "balance",
      "outputs": [
        {
          "internalType": "uint256",
          "name": "",
          "type": "uint256"
        }
      ],
      "stateMutability": "view",
      "type": "function",
      "constant": true
    },
    {
      "inputs": [
        {
          "internalType": "uint256",
          "name": "_amount",
          "type": "uint256"
        }
      ],
      "name": "deposit",
      "outputs": [],
      "stateMutability": "nonpayable",
      "type": "function"
    },
    {
      "inputs": [
        {
          "internalType": "uint256",
          "name": "_amount",
          "type": "uint256"
        }
      ],
      "name": "withdraw",
      "outputs": [],
      "stateMutability": "nonpayable",
      "type": "function"
    }
  ],
  "bytecode": "0x60806040523480156200001157600080fd5b5060405162002514380380620025148339818101604052810190620000379190620001e6565b6040518060400160405280601181526020017f44756d70426c6f636b204163636f756e740000000000000000000000000000008152506040518060400160405280600481526020017f44425441000000000000000000000000000000000000000000000000000000008152508160039080519060200190620000bb9291906200011f565b508060049080519060200190620000d49291906200011f565b50505080600560006101000a81548173ffffffffffffffffffffffffffffffffffffffff021916908373ffffffffffffffffffffffffffffffffffffffff16021790555050620002c5565b8280546200012d9062000246565b90600052602060002090601f0160209004810192826200015157600085556200019d565b82601f106200016c57805160ff19168380011785556200019d565b828001600101855582156200019d579182015b828111156200019c5782518255916020019190600101906200017f565b5b509050620001ac9190620001b0565b5090565b5b80821115620001cb576000816000905550600101620001b1565b5090565b600081519050620001e081620002ab565b92915050565b600060208284031215620001f957600080fd5b60006200020984828501620001cf565b91505092915050565b60006200021f8262000226565b9050919050565b600073ffffffffffffffffffffffffffffffffffffffff82169050919050565b600060028204905060018216806200025f57607f821691505b602082108114156200027657620002756200027c565b5b50919050565b7f4e487b7100000000000000000000000000000000000000000000000000000000600052602260045260246000fd5b620002b68162000212565b8114620002c257600080fd5b50565b61223f80620002d56000396000f3fe608060405234801561001057600080fd5b50600436106100f55760003560e01c806370a0823111610097578063b69ef8a811610066578063b69ef8a8146102ae578063b6b55f25146102cc578063dd62ed3e146102e8578063fc0c546a14610318576100f5565b806370a082311461020057806395d89b4114610230578063a457c2d71461024e578063a9059cbb1461027e576100f5565b806323b872dd116100d357806323b872dd146101665780632e1a7d4d14610196578063313ce567146101b257806339509351146101d0576100f5565b806306fdde03146100fa578063095ea7b31461011857806318160ddd14610148575b600080fd5b610102610336565b60405161010f91906119e9565b60405180910390f35b610132600480360381019061012d91906115cb565b6103c8565b60405161013f91906119b3565b60405180910390f35b6101506103eb565b60405161015d9190611bcb565b60405180910390f35b610180600480360381019061017b919061157c565b6103f5565b60405161018d91906119b3565b60405180910390f35b6101b060048036038101906101ab9190611630565b610424565b005b6101ba61047e565b6040516101c79190611be6565b60405180910390f35b6101ea60048036038101906101e591906115cb565b610487565b6040516101f791906119b3565b60405180910390f35b61021a60048036038101906102159190611517565b610531565b6040516102279190611bcb565b60405180910390f35b610238610579565b60405161024591906119e9565b60405180910390f35b610268600480360381019061026391906115cb565b61060b565b60405161027591906119b3565b60405180910390f35b610298600480360381019061029391906115cb565b6106f5565b6040516102a591906119b3565b60405180910390f35b6102b6610718565b6040516102c39190611bcb565b60405180910390f35b6102e660048036038101906102e19190611630565b6107ca565b005b61030260048036038101906102fd9190611540565b610869565b60405161030f9190611bcb565b60405180910390f35b6103206108f0565b60405161032d91906119ce565b60405180910390f35b60606003805461034590611d69565b80601f016020809104026020016040519081016040528092919081815260200182805461037190611d69565b80156103be5780601f10610393576101008083540402835291602001916103be565b820191906000526020600020905b8154815290600101906020018083116103a157829003601f168201915b5050505050905090565b6000806103d3610916565b90506103e081858561091e565b600191505092915050565b6000600254905090565b600080610400610916565b905061040d858285610ae9565b610418858585610b75565b60019150509392505050565b61042e3382610df6565b61047b3382600560009054906101000a900473ffffffffffffffffffffffffffffffffffffffff1673ffffffffffffffffffffffffffffffffffffffff16610fcd9092919063ffffffff16565b50565b60006012905090565b600080610492610916565b9050610526818585600160008673ffffffffffffffffffffffffffffffffffffffff1673ffffffffffffffffffffffffffffffffffffffff16815260200190815260200160002060008973ffffffffffffffffffffffffffffffffffffffff1673ffffffffffffffffffffffffffffffffffffffff168152602001908152602001600020546105219190611c33565b61091e565b600191505092915050565b60008060008373ffffffffffffffffffffffffffffffffffffffff1673ffffffffffffffffffffffffffffffffffffffff168152602001908152602001600020549050919050565b60606004805461058890611d69565b80601f01602080910402602001604051908101604052809291908181526020018280546105b490611d69565b80156106015780601f106105d657610100808354040283529160200191610601565b820191906000526020600020905b8154815290600101906020018083116105e457829003601f168201915b5050505050905090565b600080610616610916565b90506000600160008373ffffffffffffffffffffffffffffffffffffffff1673ffffffffffffffffffffffffffffffffffffffff16815260200190815260200160002060008673ffffffffffffffffffffffffffffffffffffffff1673ffffffffffffffffffffffffffffffffffffffff168152602001908152602001600020549050838110156106dc576040517f08c379a00000000000000000000000000000000000000000000000000000000081526004016106d390611b8b565b60405180910390fd5b6106e9828686840361091e565b60019250505092915050565b600080610700610916565b905061070d818585610b75565b600191505092915050565b6000600560009054906101000a900473ffffffffffffffffffffffffffffffffffffffff1673ffffffffffffffffffffffffffffffffffffffff166370a08231306040518263ffffffff1660e01b81526004016107759190611938565b60206040518083038186803b15801561078d57600080fd5b505afa1580156107a1573d6000803e3d6000fd5b505050506040513d601f19601f820116820180604052508101906107c59190611659565b905090565b6000811161080d576040517f08c379a000000000000000000000000000000000000000000000000000000000815260040161080490611b4b565b60405180910390fd5b61085c333083600560009054906101000a900473ffffffffffffffffffffffffffffffffffffffff1673ffffffffffffffffffffffffffffffffffffffff16611053909392919063ffffffff16565b61086633826110dc565b50565b6000600160008473ffffffffffffffffffffffffffffffffffffffff1673ffffffffffffffffffffffffffffffffffffffff16815260200190815260200160002060008373ffffffffffffffffffffffffffffffffffffffff1673ffffffffffffffffffffffffffffffffffffffff16815260200190815260200160002054905092915050565b600560009054906101000a900473ffffffffffffffffffffffffffffffffffffffff1681565b600033905090565b600073ffffffffffffffffffffffffffffffffffffffff168373ffffffffffffffffffffffffffffffffffffffff16141561098e576040517f08c379a000000000000000000000000000000000000000000000000000000000815260040161098590611b0b565b60405180910390fd5b600073ffffffffffffffffffffffffffffffffffffffff168273ffffffffffffffffffffffffffffffffffffffff1614156109fe576040517f08c379a00000000000000000000000000000000000000000000000000000000081526004016109f590611a4b565b60405180910390fd5b80600160008573ffffffffffffffffffffffffffffffffffffffff1673ffffffffffffffffffffffffffffffffffffffff16815260200190815260200160002060008473ffffffffffffffffffffffffffffffffffffffff1673ffffffffffffffffffffffffffffffffffffffff168152602001908152602001600020819055508173ffffffffffffffffffffffffffffffffffffffff168373ffffffffffffffffffffffffffffffffffffffff167f8c5be1e5ebec7d5bd14f71427d1e84f3dd0314c0f7b2291e5b200ac8c7c3b92583604051610adc9190611bcb565b60405180910390a3505050565b6000610af58484610869565b90507fffffffffffffffffffffffffffffffffffffffffffffffffffffffffffffffff8114610b6f5781811015610b61576040517f08c379a0000000000000000000000000000000000000000000000000000000008152600401610b5890611a6b565b60405180910390fd5b610b6e848484840361091e565b5b50505050565b600073ffffffffffffffffffffffffffffffffffffffff168373ffffffffffffffffffffffffffffffffffffffff161415610be5576040517f08c379a0000000000000000000000000000000000000000000000000000000008152600401610bdc90611aeb565b60405180910390fd5b600073ffffffffffffffffffffffffffffffffffffffff168273ffffffffffffffffffffffffffffffffffffffff161415610c55576040517f08c379a0000000000000000000000000000000000000000000000000000000008152600401610c4c90611a0b565b60405180910390fd5b610c6083838361123c565b60008060008573ffffffffffffffffffffffffffffffffffffffff1673ffffffffffffffffffffffffffffffffffffffff16815260200190815260200160002054905081811015610ce6576040517f08c379a0000000000000000000000000000000000000000000000000000000008152600401610cdd90611a8b565b60405180910390fd5b8181036000808673ffffffffffffffffffffffffffffffffffffffff1673ffffffffffffffffffffffffffffffffffffffff16815260200190815260200160002081905550816000808573ffffffffffffffffffffffffffffffffffffffff1673ffffffffffffffffffffffffffffffffffffffff1681526020019081526020016000206000828254610d799190611c33565b925050819055508273ffffffffffffffffffffffffffffffffffffffff168473ffffffffffffffffffffffffffffffffffffffff167fddf252ad1be2c89b69c2b068fc378daa952ba7f163c4a11628f55a4df523b3ef84604051610ddd9190611bcb565b60405180910390a3610df0848484611241565b50505050565b600073ffffffffffffffffffffffffffffffffffffffff168273ffffffffffffffffffffffffffffffffffffffff161415610e66576040517f08c379a0000000000000000000000000000000000000000000000000000000008152600401610e5d90611acb565b60405180910390fd5b610e728260008361123c565b60008060008473ffffffffffffffffffffffffffffffffffffffff1673ffffffffffffffffffffffffffffffffffffffff16815260200190815260200160002054905081811015610ef8576040517f08c379a0000000000000000000000000000000000000000000000000000000008152600401610eef90611a2b565b60405180910390fd5b8181036000808573ffffffffffffffffffffffffffffffffffffffff1673ffffffffffffffffffffffffffffffffffffffff168152602001908152602001600020819055508160026000828254610f4f9190611c89565b92505081905550600073ffffffffffffffffffffffffffffffffffffffff168373ffffffffffffffffffffffffffffffffffffffff167fddf252ad1be2c89b69c2b068fc378daa952ba7f163c4a11628f55a4df523b3ef84604051610fb49190611bcb565b60405180910390a3610fc883600084611241565b505050565b61104e8363a9059cbb60e01b8484604051602401610fec92919061198a565b604051602081830303815290604052907bffffffffffffffffffffffffffffffffffffffffffffffffffffffff19166020820180517bffffffffffffffffffffffffffffffffffffffffffffffffffffffff8381831617835250505050611246565b505050565b6110d6846323b872dd60e01b85858560405160240161107493929190611953565b604051602081830303815290604052907bffffffffffffffffffffffffffffffffffffffffffffffffffffffff19166020820180517bffffffffffffffffffffffffffffffffffffffffffffffffffffffff8381831617835250505050611246565b50505050565b600073ffffffffffffffffffffffffffffffffffffffff168273ffffffffffffffffffffffffffffffffffffffff16141561114c576040517f08c379a000000000000000000000000000000000000000000000000000000000815260040161114390611bab565b60405180910390fd5b6111586000838361123c565b806002600082825461116a9190611c33565b92505081905550806000808473ffffffffffffffffffffffffffffffffffffffff1673ffffffffffffffffffffffffffffffffffffffff16815260200190815260200160002060008282546111bf9190611c33565b925050819055508173ffffffffffffffffffffffffffffffffffffffff16600073ffffffffffffffffffffffffffffffffffffffff167fddf252ad1be2c89b69c2b068fc378daa952ba7f163c4a11628f55a4df523b3ef836040516112249190611bcb565b60405180910390a361123860008383611241565b5050565b505050565b505050565b60006112a8826040518060400160405280602081526020017f5361666545524332303a206c6f772d6c6576656c2063616c6c206661696c65648152508573ffffffffffffffffffffffffffffffffffffffff1661130d9092919063ffffffff16565b905060008151111561130857808060200190518101906112c89190611607565b611307576040517f08c379a00000000000000000000000000000000000000000000000000000000081526004016112fe90611b6b565b60405180910390fd5b5b505050565b606061131c8484600085611325565b90509392505050565b60608247101561136a576040517f08c379a000000000000000000000000000000000000000000000000000000000815260040161136190611aab565b60405180910390fd5b61137385611439565b6113b2576040517f08c379a00000000000000000000000000000000000000000000000000000000081526004016113a990611b2b565b60405180910390fd5b6000808673ffffffffffffffffffffffffffffffffffffffff1685876040516113db9190611921565b60006040518083038185875af1925050503d8060008114611418576040519150601f19603f3d011682016040523d82523d6000602084013e61141d565b606091505b509150915061142d82828661145c565b92505050949350505050565b6000808273ffffffffffffffffffffffffffffffffffffffff163b119050919050565b6060831561146c578290506114bc565b60008351111561147f5782518084602001fd5b816040517f08c379a00000000000000000000000000000000000000000000000000000000081526004016114b391906119e9565b60405180910390fd5b9392505050565b6000813590506114d2816121c4565b92915050565b6000815190506114e7816121db565b92915050565b6000813590506114fc816121f2565b92915050565b600081519050611511816121f2565b92915050565b60006020828403121561152957600080fd5b6000611537848285016114c3565b91505092915050565b6000806040838503121561155357600080fd5b6000611561858286016114c3565b9250506020611572858286016114c3565b9150509250929050565b60008060006060848603121561159157600080fd5b600061159f868287016114c3565b93505060206115b0868287016114c3565b92505060406115c1868287016114ed565b9150509250925092565b600080604083850312156115de57600080fd5b60006115ec858286016114c3565b92505060206115fd858286016114ed565b9150509250929050565b60006020828403121561161957600080fd5b6000611627848285016114d8565b91505092915050565b60006020828403121561164257600080fd5b6000611650848285016114ed565b91505092915050565b60006020828403121561166b57600080fd5b600061167984828501611502565b91505092915050565b61168b81611cbd565b82525050565b61169a81611ccf565b82525050565b60006116ab82611c01565b6116b58185611c17565b93506116c5818560208601611d36565b80840191505092915050565b6116da81611d12565b82525050565b60006116eb82611c0c565b6116f58185611c22565b9350611705818560208601611d36565b61170e81611df9565b840191505092915050565b6000611726602383611c22565b915061173182611e0a565b604082019050919050565b6000611749602283611c22565b915061175482611e59565b604082019050919050565b600061176c602283611c22565b915061177782611ea8565b604082019050919050565b600061178f601d83611c22565b915061179a82611ef7565b602082019050919050565b60006117b2602683611c22565b91506117bd82611f20565b604082019050919050565b60006117d5602683611c22565b91506117e082611f6f565b604082019050919050565b60006117f8602183611c22565b915061180382611fbe565b604082019050919050565b600061181b602583611c22565b91506118268261200d565b604082019050919050565b600061183e602483611c22565b91506118498261205c565b604082019050919050565b6000611861601d83611c22565b915061186c826120ab565b602082019050919050565b6000611884601283611c22565b915061188f826120d4565b602082019050919050565b60006118a7602a83611c22565b91506118b2826120fd565b604082019050919050565b60006118ca602583611c22565b91506118d58261214c565b604082019050919050565b60006118ed601f83611c22565b91506118f88261219b565b602082019050919050565b61190c81611cfb565b82525050565b61191b81611d05565b82525050565b600061192d82846116a0565b915081905092915050565b600060208201905061194d6000830184611682565b92915050565b60006060820190506119686000830186611682565b6119756020830185611682565b6119826040830184611903565b949350505050565b600060408201905061199f6000830185611682565b6119ac6020830184611903565b9392505050565b60006020820190506119c86000830184611691565b92915050565b60006020820190506119e360008301846116d1565b92915050565b60006020820190508181036000830152611a0381846116e0565b905092915050565b60006020820190508181036000830152611a2481611719565b9050919050565b60006020820190508181036000830152611a448161173c565b9050919050565b60006020820190508181036000830152611a648161175f565b9050919050565b60006020820190508181036000830152611a8481611782565b9050919050565b60006020820190508181036000830152611aa4816117a5565b9050919050565b60006020820190508181036000830152611ac4816117c8565b9050919050565b60006020820190508181036000830152611ae4816117eb565b9050919050565b60006020820190508181036000830152611b048161180e565b9050919050565b60006020820190508181036000830152611b2481611831565b9050919050565b60006020820190508181036000830152611b4481611854565b9050919050565b60006020820190508181036000830152611b6481611877565b9050919050565b60006020820190508181036000830152611b848161189a565b9050919050565b60006020820190508181036000830152611ba4816118bd565b9050919050565b60006020820190508181036000830152611bc4816118e0565b9050919050565b6000602082019050611be06000830184611903565b92915050565b6000602082019050611bfb6000830184611912565b92915050565b600081519050919050565b600081519050919050565b600081905092915050565b600082825260208201905092915050565b6000611c3e82611cfb565b9150611c4983611cfb565b9250827fffffffffffffffffffffffffffffffffffffffffffffffffffffffffffffffff03821115611c7e57611c7d611d9b565b5b828201905092915050565b6000611c9482611cfb565b9150611c9f83611cfb565b925082821015611cb257611cb1611d9b565b5b828203905092915050565b6000611cc882611cdb565b9050919050565b60008115159050919050565b600073ffffffffffffffffffffffffffffffffffffffff82169050919050565b6000819050919050565b600060ff82169050919050565b6000611d1d82611d24565b9050919050565b6000611d2f82611cdb565b9050919050565b60005b83811015611d54578082015181840152602081019050611d39565b83811115611d63576000848401525b50505050565b60006002820490506001821680611d8157607f821691505b60208210811415611d9557611d94611dca565b5b50919050565b7f4e487b7100000000000000000000000000000000000000000000000000000000600052601160045260246000fd5b7f4e487b7100000000000000000000000000000000000000000000000000000000600052602260045260246000fd5b6000601f19601f8301169050919050565b7f45524332303a207472616e7366657220746f20746865207a65726f206164647260008201527f6573730000000000000000000000000000000000000000000000000000000000602082015250565b7f45524332303a206275726e20616d6f756e7420657863656564732062616c616e60008201527f6365000000000000000000000000000000000000000000000000000000000000602082015250565b7f45524332303a20617070726f766520746f20746865207a65726f20616464726560008201527f7373000000000000000000000000000000000000000000000000000000000000602082015250565b7f45524332303a20696e73756666696369656e7420616c6c6f77616e6365000000600082015250565b7f45524332303a207472616e7366657220616d6f756e742065786365656473206260008201527f616c616e63650000000000000000000000000000000000000000000000000000602082015250565b7f416464726573733a20696e73756666696369656e742062616c616e636520666f60008201527f722063616c6c0000000000000000000000000000000000000000000000000000602082015250565b7f45524332303a206275726e2066726f6d20746865207a65726f2061646472657360008201527f7300000000000000000000000000000000000000000000000000000000000000602082015250565b7f45524332303a207472616e736665722066726f6d20746865207a65726f20616460008201527f6472657373000000000000000000000000000000000000000000000000000000602082015250565b7f45524332303a20617070726f76652066726f6d20746865207a65726f2061646460008201527f7265737300000000000000000000000000000000000000000000000000000000602082015250565b7f416464726573733a2063616c6c20746f206e6f6e2d636f6e7472616374000000600082015250565b7f616d6f756e742063616e6e6f7420626520300000000000000000000000000000600082015250565b7f5361666545524332303a204552433230206f7065726174696f6e20646964206e60008201527f6f74207375636365656400000000000000000000000000000000000000000000602082015250565b7f45524332303a2064656372656173656420616c6c6f77616e63652062656c6f7760008201527f207a65726f000000000000000000000000000000000000000000000000000000602082015250565b7f45524332303a206d696e7420746f20746865207a65726f206164647265737300600082015250565b6121cd81611cbd565b81146121d857600080fd5b50565b6121e481611ccf565b81146121ef57600080fd5b50565b6121fb81611cfb565b811461220657600080fd5b5056fea26469706673582212201802632608f709fe3b9caf1f00545c01bb6b32977fad9fbf7fb76aae438af0d564736f6c63430008030033",
  "immutableReferences": {},
  "source": "// SPDX-License-Identifier: UNLICENSED\r\n\r\npragma solidity ^0.8.0;\r\n\r\nimport \"@openzeppelin/contracts/token/ERC20/IERC20.sol\";\r\nimport \"@openzeppelin/contracts/utils/Address.sol\";\r\nimport \"@openzeppelin/contracts/token/ERC20/utils/SafeERC20.sol\";\r\nimport \"@openzeppelin/contracts/token/ERC20/ERC20.sol\";\r\n\r\ncontract DumpBlockAccount is ERC20 {\r\n    using Address for address;\r\n    using SafeERC20 for IERC20;\r\n\r\n    IERC20 public token;\r\n\r\n    constructor(address _token) public ERC20(\"DumpBlock Account\", \"DBTA\") {\r\n        token = IERC20(_token);\r\n    }\r\n\r\n\r\n    function balance() public view returns (uint256) {\r\n        return token.balanceOf(address(this));\r\n    }\r\n\r\n    function deposit(uint256 _amount) public {\r\n        // Amount must be greater than zero\r\n        require(_amount > 0, \"amount cannot be 0\");\r\n\r\n        // Transfer MyToken to smart contract\r\n        token.safeTransferFrom(msg.sender, address(this), _amount);\r\n\r\n        // Mint FarmToken to msg sender\r\n        _mint(msg.sender, _amount);\r\n    }\r\n\r\n    function withdraw(uint256 _amount) public {\r\n        // Burn FarmTokens from msg sender\r\n        _burn(msg.sender, _amount);\r\n\r\n        // Transfer MyTokens from this smart contract to msg sender\r\n        token.safeTransfer(msg.sender, _amount);\r\n    }\r\n}",
  "sourcePath": "D:\\Homework\\Dump-Block\\solidity\\contracts\\DumpBlockAccount.sol",
  "compiler": {
    "name": "solc",
    "version": "0.8.3+commit.8d00100c.Emscripten.clang"
  },
  "schemaVersion": "3.4.6",
  "updatedAt": "2022-04-03T07:20:28.678Z",
  "networkType": "ethereum",
  "devdoc": {
    "kind": "dev",
    "methods": {
      "allowance(address,address)": {
        "details": "See {IERC20-allowance}."
      },
      "approve(address,uint256)": {
        "details": "See {IERC20-approve}. NOTE: If `amount` is the maximum `uint256`, the allowance is not updated on `transferFrom`. This is semantically equivalent to an infinite approval. Requirements: - `spender` cannot be the zero address."
      },
      "balanceOf(address)": {
        "details": "See {IERC20-balanceOf}."
      },
      "decimals()": {
        "details": "Returns the number of decimals used to get its user representation. For example, if `decimals` equals `2`, a balance of `505` tokens should be displayed to a user as `5.05` (`505 / 10 ** 2`). Tokens usually opt for a value of 18, imitating the relationship between Ether and Wei. This is the value {ERC20} uses, unless this function is overridden; NOTE: This information is only used for _display_ purposes: it in no way affects any of the arithmetic of the contract, including {IERC20-balanceOf} and {IERC20-transfer}."
      },
      "decreaseAllowance(address,uint256)": {
        "details": "Atomically decreases the allowance granted to `spender` by the caller. This is an alternative to {approve} that can be used as a mitigation for problems described in {IERC20-approve}. Emits an {Approval} event indicating the updated allowance. Requirements: - `spender` cannot be the zero address. - `spender` must have allowance for the caller of at least `subtractedValue`."
      },
      "increaseAllowance(address,uint256)": {
        "details": "Atomically increases the allowance granted to `spender` by the caller. This is an alternative to {approve} that can be used as a mitigation for problems described in {IERC20-approve}. Emits an {Approval} event indicating the updated allowance. Requirements: - `spender` cannot be the zero address."
      },
      "name()": {
        "details": "Returns the name of the token."
      },
      "symbol()": {
        "details": "Returns the symbol of the token, usually a shorter version of the name."
      },
      "totalSupply()": {
        "details": "See {IERC20-totalSupply}."
      },
      "transfer(address,uint256)": {
        "details": "See {IERC20-transfer}. Requirements: - `to` cannot be the zero address. - the caller must have a balance of at least `amount`."
      },
      "transferFrom(address,address,uint256)": {
        "details": "See {IERC20-transferFrom}. Emits an {Approval} event indicating the updated allowance. This is not required by the EIP. See the note at the beginning of {ERC20}. NOTE: Does not update the allowance if the current allowance is the maximum `uint256`. Requirements: - `from` and `to` cannot be the zero address. - `from` must have a balance of at least `amount`. - the caller must have allowance for ``from``'s tokens of at least `amount`."
      }
    },
    "version": 1
  },
  "userdoc": {
    "kind": "user",
    "methods": {},
    "version": 1
  }
}