{
  "contractName": "DumpHero",
  "abi": [
    {
      "inputs": [
        {
          "internalType": "address",
          "name": "_token",
          "type": "address"
        }
      ],
      "stateMutability": "nonpayable",
      "type": "constructor"
    },
    {
      "anonymous": false,
      "inputs": [
        {
          "indexed": true,
          "internalType": "address",
          "name": "owner",
          "type": "address"
        },
        {
          "indexed": true,
          "internalType": "address",
          "name": "approved",
          "type": "address"
        },
        {
          "indexed": true,
          "internalType": "uint256",
          "name": "tokenId",
          "type": "uint256"
        }
      ],
      "name": "Approval",
      "type": "event"
    },
    {
      "anonymous": false,
      "inputs": [
        {
          "indexed": true,
          "internalType": "address",
          "name": "owner",
          "type": "address"
        },
        {
          "indexed": true,
          "internalType": "address",
          "name": "operator",
          "type": "address"
        },
        {
          "indexed": false,
          "internalType": "bool",
          "name": "approved",
          "type": "bool"
        }
      ],
      "name": "ApprovalForAll",
      "type": "event"
    },
    {
      "anonymous": false,
      "inputs": [
        {
          "indexed": true,
          "internalType": "address",
          "name": "from",
          "type": "address"
        },
        {
          "indexed": true,
          "internalType": "address",
          "name": "to",
          "type": "address"
        },
        {
          "indexed": true,
          "internalType": "uint256",
          "name": "tokenId",
          "type": "uint256"
        }
      ],
      "name": "Transfer",
      "type": "event"
    },
    {
      "inputs": [
        {
          "internalType": "address",
          "name": "to",
          "type": "address"
        },
        {
          "internalType": "uint256",
          "name": "tokenId",
          "type": "uint256"
        }
      ],
      "name": "approve",
      "outputs": [],
      "stateMutability": "nonpayable",
      "type": "function"
    },
    {
      "inputs": [
        {
          "internalType": "address",
          "name": "owner",
          "type": "address"
        }
      ],
      "name": "balanceOf",
      "outputs": [
        {
          "internalType": "uint256",
          "name": "",
          "type": "uint256"
        }
      ],
      "stateMutability": "view",
      "type": "function",
      "constant": true
    },
    {
      "inputs": [
        {
          "internalType": "uint256",
          "name": "tokenId",
          "type": "uint256"
        }
      ],
      "name": "getApproved",
      "outputs": [
        {
          "internalType": "address",
          "name": "",
          "type": "address"
        }
      ],
      "stateMutability": "view",
      "type": "function",
      "constant": true
    },
    {
      "inputs": [
        {
          "internalType": "address",
          "name": "owner",
          "type": "address"
        },
        {
          "internalType": "address",
          "name": "operator",
          "type": "address"
        }
      ],
      "name": "isApprovedForAll",
      "outputs": [
        {
          "internalType": "bool",
          "name": "",
          "type": "bool"
        }
      ],
      "stateMutability": "view",
      "type": "function",
      "constant": true
    },
    {
      "inputs": [],
      "name": "name",
      "outputs": [
        {
          "internalType": "string",
          "name": "",
          "type": "string"
        }
      ],
      "stateMutability": "view",
      "type": "function",
      "constant": true
    },
    {
      "inputs": [
        {
          "internalType": "uint256",
          "name": "tokenId",
          "type": "uint256"
        }
      ],
      "name": "ownerOf",
      "outputs": [
        {
          "internalType": "address",
          "name": "",
          "type": "address"
        }
      ],
      "stateMutability": "view",
      "type": "function",
      "constant": true
    },
    {
      "inputs": [
        {
          "internalType": "address",
          "name": "from",
          "type": "address"
        },
        {
          "internalType": "address",
          "name": "to",
          "type": "address"
        },
        {
          "internalType": "uint256",
          "name": "tokenId",
          "type": "uint256"
        }
      ],
      "name": "safeTransferFrom",
      "outputs": [],
      "stateMutability": "nonpayable",
      "type": "function"
    },
    {
      "inputs": [
        {
          "internalType": "address",
          "name": "from",
          "type": "address"
        },
        {
          "internalType": "address",
          "name": "to",
          "type": "address"
        },
        {
          "internalType": "uint256",
          "name": "tokenId",
          "type": "uint256"
        },
        {
          "internalType": "bytes",
          "name": "_data",
          "type": "bytes"
        }
      ],
      "name": "safeTransferFrom",
      "outputs": [],
      "stateMutability": "nonpayable",
      "type": "function"
    },
    {
      "inputs": [
        {
          "internalType": "address",
          "name": "operator",
          "type": "address"
        },
        {
          "internalType": "bool",
          "name": "approved",
          "type": "bool"
        }
      ],
      "name": "setApprovalForAll",
      "outputs": [],
      "stateMutability": "nonpayable",
      "type": "function"
    },
    {
      "inputs": [
        {
          "internalType": "bytes4",
          "name": "interfaceId",
          "type": "bytes4"
        }
      ],
      "name": "supportsInterface",
      "outputs": [
        {
          "internalType": "bool",
          "name": "",
          "type": "bool"
        }
      ],
      "stateMutability": "view",
      "type": "function",
      "constant": true
    },
    {
      "inputs": [],
      "name": "symbol",
      "outputs": [
        {
          "internalType": "string",
          "name": "",
          "type": "string"
        }
      ],
      "stateMutability": "view",
      "type": "function",
      "constant": true
    },
    {
      "inputs": [],
      "name": "token",
      "outputs": [
        {
          "internalType": "contract IERC20",
          "name": "",
          "type": "address"
        }
      ],
      "stateMutability": "view",
      "type": "function",
      "constant": true
    },
    {
      "inputs": [
        {
          "internalType": "uint256",
          "name": "tokenId",
          "type": "uint256"
        }
      ],
      "name": "tokenURI",
      "outputs": [
        {
          "internalType": "string",
          "name": "",
          "type": "string"
        }
      ],
      "stateMutability": "view",
      "type": "function",
      "constant": true
    },
    {
      "inputs": [
        {
          "internalType": "address",
          "name": "from",
          "type": "address"
        },
        {
          "internalType": "address",
          "name": "to",
          "type": "address"
        },
        {
          "internalType": "uint256",
          "name": "tokenId",
          "type": "uint256"
        }
      ],
      "name": "transferFrom",
      "outputs": [],
      "stateMutability": "nonpayable",
      "type": "function"
    },
    {
      "inputs": [
        {
          "internalType": "address",
          "name": "player",
          "type": "address"
        },
        {
          "internalType": "string",
          "name": "tokenURI",
          "type": "string"
        }
      ],
      "name": "mintHero",
      "outputs": [
        {
          "internalType": "uint256",
          "name": "",
          "type": "uint256"
        }
      ],
      "stateMutability": "nonpayable",
      "type": "function"
    },
    {
      "inputs": [
        {
          "internalType": "uint256",
          "name": "tokenId",
          "type": "uint256"
        }
      ],
      "name": "burn",
      "outputs": [],
      "stateMutability": "nonpayable",
      "type": "function"
    },
    {
      "inputs": [
        {
          "internalType": "address",
          "name": "owner",
          "type": "address"
        },
        {
          "internalType": "uint256",
          "name": "index",
          "type": "uint256"
        }
      ],
      "name": "tokenOfOwnerByIndex",
      "outputs": [
        {
          "internalType": "uint256",
          "name": "",
          "type": "uint256"
        }
      ],
      "stateMutability": "view",
      "type": "function",
      "constant": true
    }
  ],
  "bytecode": "0x60806040523480156200001157600080fd5b50604051620038fd380380620038fd8339818101604052810190620000379190620001e6565b6040518060400160405280600981526020017f44756d70426c6f636b00000000000000000000000000000000000000000000008152506040518060400160405280600581526020017f444845524f0000000000000000000000000000000000000000000000000000008152508160009080519060200190620000bb9291906200011f565b508060019080519060200190620000d49291906200011f565b50505080600760006101000a81548173ffffffffffffffffffffffffffffffffffffffff021916908373ffffffffffffffffffffffffffffffffffffffff16021790555050620002c5565b8280546200012d9062000246565b90600052602060002090601f0160209004810192826200015157600085556200019d565b82601f106200016c57805160ff19168380011785556200019d565b828001600101855582156200019d579182015b828111156200019c5782518255916020019190600101906200017f565b5b509050620001ac9190620001b0565b5090565b5b80821115620001cb576000816000905550600101620001b1565b5090565b600081519050620001e081620002ab565b92915050565b600060208284031215620001f957600080fd5b60006200020984828501620001cf565b91505092915050565b60006200021f8262000226565b9050919050565b600073ffffffffffffffffffffffffffffffffffffffff82169050919050565b600060028204905060018216806200025f57607f821691505b602082108114156200027657620002756200027c565b5b50919050565b7f4e487b7100000000000000000000000000000000000000000000000000000000600052602260045260246000fd5b620002b68162000212565b8114620002c257600080fd5b50565b61362880620002d56000396000f3fe608060405234801561001057600080fd5b506004361061010b5760003560e01c80636352211e116100a2578063a8cc5ee411610071578063a8cc5ee4146102c8578063b88d4fde146102f8578063c87b56dd14610314578063e985e9c514610344578063fc0c546a146103745761010b565b80636352211e1461022e57806370a082311461025e57806395d89b411461028e578063a22cb465146102ac5761010b565b806323b872dd116100de57806323b872dd146101aa5780632f745c59146101c657806342842e0e146101f657806342966c68146102125761010b565b806301ffc9a71461011057806306fdde0314610140578063081812fc1461015e578063095ea7b31461018e575b600080fd5b61012a600480360381019061012591906123e6565b610392565b6040516101379190612921565b60405180910390f35b610148610474565b6040516101559190612957565b60405180910390f35b61017860048036038101906101739190612438565b610506565b6040516101859190612891565b60405180910390f35b6101a860048036038101906101a39190612381565b61058b565b005b6101c460048036038101906101bf9190612227565b6106a3565b005b6101e060048036038101906101db9190612381565b610703565b6040516101ed9190612bf9565b60405180910390f35b610210600480360381019061020b9190612227565b6107a8565b005b61022c60048036038101906102279190612438565b6107c8565b005b61024860048036038101906102439190612438565b6108cb565b6040516102559190612891565b60405180910390f35b610278600480360381019061027391906121c2565b61097d565b6040516102859190612bf9565b60405180910390f35b610296610a35565b6040516102a39190612957565b60405180910390f35b6102c660048036038101906102c191906122f1565b610ac7565b005b6102e260048036038101906102dd919061232d565b610add565b6040516102ef9190612bf9565b60405180910390f35b610312600480360381019061030d9190612276565b610b78565b005b61032e60048036038101906103299190612438565b610bda565b60405161033b9190612957565b60405180910390f35b61035e600480360381019061035991906121eb565b610d2c565b60405161036b9190612921565b60405180910390f35b61037c610dc0565b604051610389919061293c565b60405180910390f35b60007f80ac58cd000000000000000000000000000000000000000000000000000000007bffffffffffffffffffffffffffffffffffffffffffffffffffffffff1916827bffffffffffffffffffffffffffffffffffffffffffffffffffffffff1916148061045d57507f5b5e139f000000000000000000000000000000000000000000000000000000007bffffffffffffffffffffffffffffffffffffffffffffffffffffffff1916827bffffffffffffffffffffffffffffffffffffffffffffffffffffffff1916145b8061046d575061046c82610de6565b5b9050919050565b60606000805461048390612e7e565b80601f01602080910402602001604051908101604052809291908181526020018280546104af90612e7e565b80156104fc5780601f106104d1576101008083540402835291602001916104fc565b820191906000526020600020905b8154815290600101906020018083116104df57829003601f168201915b5050505050905090565b600061051182610e50565b610550576040517f08c379a000000000000000000000000000000000000000000000000000000000815260040161054790612b19565b60405180910390fd5b6004600083815260200190815260200160002060009054906101000a900473ffffffffffffffffffffffffffffffffffffffff169050919050565b6000610596826108cb565b90508073ffffffffffffffffffffffffffffffffffffffff168373ffffffffffffffffffffffffffffffffffffffff161415610607576040517f08c379a00000000000000000000000000000000000000000000000000000000081526004016105fe90612b59565b60405180910390fd5b8073ffffffffffffffffffffffffffffffffffffffff16610626610ebc565b73ffffffffffffffffffffffffffffffffffffffff16148061065557506106548161064f610ebc565b610d2c565b5b610694576040517f08c379a000000000000000000000000000000000000000000000000000000000815260040161068b90612a59565b60405180910390fd5b61069e8383610ec4565b505050565b6106b46106ae610ebc565b82610f7d565b6106f3576040517f08c379a00000000000000000000000000000000000000000000000000000000081526004016106ea90612b79565b60405180910390fd5b6106fe83838361105b565b505050565b600061070e8361097d565b821061074f576040517f08c379a000000000000000000000000000000000000000000000000000000000815260040161074690612bb9565b60405180910390fd5b600960008473ffffffffffffffffffffffffffffffffffffffff1673ffffffffffffffffffffffffffffffffffffffff168152602001908152602001600020600083815260200190815260200160002054905092915050565b6107c383838360405180602001604052806000815250610b78565b505050565b6107d1816112c2565b6108c833600760009054906101000a900473ffffffffffffffffffffffffffffffffffffffff1673ffffffffffffffffffffffffffffffffffffffff166370a08231306040518263ffffffff1660e01b81526004016108309190612891565b60206040518083038186803b15801561084857600080fd5b505afa15801561085c573d6000803e3d6000fd5b505050506040513d601f19601f820116820180604052508101906108809190612461565b600760009054906101000a900473ffffffffffffffffffffffffffffffffffffffff1673ffffffffffffffffffffffffffffffffffffffff166113159092919063ffffffff16565b50565b6000806002600084815260200190815260200160002060009054906101000a900473ffffffffffffffffffffffffffffffffffffffff169050600073ffffffffffffffffffffffffffffffffffffffff168173ffffffffffffffffffffffffffffffffffffffff161415610974576040517f08c379a000000000000000000000000000000000000000000000000000000000815260040161096b90612a99565b60405180910390fd5b80915050919050565b60008073ffffffffffffffffffffffffffffffffffffffff168273ffffffffffffffffffffffffffffffffffffffff1614156109ee576040517f08c379a00000000000000000000000000000000000000000000000000000000081526004016109e590612a79565b60405180910390fd5b600360008373ffffffffffffffffffffffffffffffffffffffff1673ffffffffffffffffffffffffffffffffffffffff168152602001908152602001600020549050919050565b606060018054610a4490612e7e565b80601f0160208091040260200160405190810160405280929190818152602001828054610a7090612e7e565b8015610abd5780601f10610a9257610100808354040283529160200191610abd565b820191906000526020600020905b815481529060010190602001808311610aa057829003601f168201915b5050505050905090565b610ad9610ad2610ebc565b838361139b565b5050565b6000610ae96008611508565b6000610af5600861151e565b90506000610b028561097d565b9050610b0e858361152c565b81600960008773ffffffffffffffffffffffffffffffffffffffff1673ffffffffffffffffffffffffffffffffffffffff168152602001908152602001600020600083815260200190815260200160002081905550610b6d8285611706565b819250505092915050565b610b89610b83610ebc565b83610f7d565b610bc8576040517f08c379a0000000000000000000000000000000000000000000000000000000008152600401610bbf90612b79565b60405180910390fd5b610bd48484848461177a565b50505050565b6060610be582610e50565b610c24576040517f08c379a0000000000000000000000000000000000000000000000000000000008152600401610c1b90612af9565b60405180910390fd5b6000600660008481526020019081526020016000208054610c4490612e7e565b80601f0160208091040260200160405190810160405280929190818152602001828054610c7090612e7e565b8015610cbd5780601f10610c9257610100808354040283529160200191610cbd565b820191906000526020600020905b815481529060010190602001808311610ca057829003601f168201915b505050505090506000610cce6117d6565b9050600081511415610ce4578192505050610d27565b600082511115610d19578082604051602001610d0192919061286d565b60405160208183030381529060405292505050610d27565b610d22846117ed565b925050505b919050565b6000600560008473ffffffffffffffffffffffffffffffffffffffff1673ffffffffffffffffffffffffffffffffffffffff16815260200190815260200160002060008373ffffffffffffffffffffffffffffffffffffffff1673ffffffffffffffffffffffffffffffffffffffff16815260200190815260200160002060009054906101000a900460ff16905092915050565b600760009054906101000a900473ffffffffffffffffffffffffffffffffffffffff1681565b60007f01ffc9a7000000000000000000000000000000000000000000000000000000007bffffffffffffffffffffffffffffffffffffffffffffffffffffffff1916827bffffffffffffffffffffffffffffffffffffffffffffffffffffffff1916149050919050565b60008073ffffffffffffffffffffffffffffffffffffffff166002600084815260200190815260200160002060009054906101000a900473ffffffffffffffffffffffffffffffffffffffff1673ffffffffffffffffffffffffffffffffffffffff1614159050919050565b600033905090565b816004600083815260200190815260200160002060006101000a81548173ffffffffffffffffffffffffffffffffffffffff021916908373ffffffffffffffffffffffffffffffffffffffff160217905550808273ffffffffffffffffffffffffffffffffffffffff16610f37836108cb565b73ffffffffffffffffffffffffffffffffffffffff167f8c5be1e5ebec7d5bd14f71427d1e84f3dd0314c0f7b2291e5b200ac8c7c3b92560405160405180910390a45050565b6000610f8882610e50565b610fc7576040517f08c379a0000000000000000000000000000000000000000000000000000000008152600401610fbe90612a39565b60405180910390fd5b6000610fd2836108cb565b90508073ffffffffffffffffffffffffffffffffffffffff168473ffffffffffffffffffffffffffffffffffffffff16148061101457506110138185610d2c565b5b8061105257508373ffffffffffffffffffffffffffffffffffffffff1661103a84610506565b73ffffffffffffffffffffffffffffffffffffffff16145b91505092915050565b8273ffffffffffffffffffffffffffffffffffffffff1661107b826108cb565b73ffffffffffffffffffffffffffffffffffffffff16146110d1576040517f08c379a00000000000000000000000000000000000000000000000000000000081526004016110c890612999565b60405180910390fd5b600073ffffffffffffffffffffffffffffffffffffffff168273ffffffffffffffffffffffffffffffffffffffff161415611141576040517f08c379a0000000000000000000000000000000000000000000000000000000008152600401611138906129d9565b60405180910390fd5b61114c838383611894565b611157600082610ec4565b6001600360008573ffffffffffffffffffffffffffffffffffffffff1673ffffffffffffffffffffffffffffffffffffffff16815260200190815260200160002060008282546111a79190612d70565b925050819055506001600360008473ffffffffffffffffffffffffffffffffffffffff1673ffffffffffffffffffffffffffffffffffffffff16815260200190815260200160002060008282546111fe9190612ce9565b92505081905550816002600083815260200190815260200160002060006101000a81548173ffffffffffffffffffffffffffffffffffffffff021916908373ffffffffffffffffffffffffffffffffffffffff160217905550808273ffffffffffffffffffffffffffffffffffffffff168473ffffffffffffffffffffffffffffffffffffffff167fddf252ad1be2c89b69c2b068fc378daa952ba7f163c4a11628f55a4df523b3ef60405160405180910390a46112bd838383611899565b505050565b6112cb8161189e565b60006006600083815260200190815260200160002080546112eb90612e7e565b905014611312576006600082815260200190815260200160002060006113119190611f7c565b5b50565b6113968363a9059cbb60e01b84846040516024016113349291906128f8565b604051602081830303815290604052907bffffffffffffffffffffffffffffffffffffffffffffffffffffffff19166020820180517bffffffffffffffffffffffffffffffffffffffffffffffffffffffff83818316178352505050506119bb565b505050565b8173ffffffffffffffffffffffffffffffffffffffff168373ffffffffffffffffffffffffffffffffffffffff16141561140a576040517f08c379a0000000000000000000000000000000000000000000000000000000008152600401611401906129f9565b60405180910390fd5b80600560008573ffffffffffffffffffffffffffffffffffffffff1673ffffffffffffffffffffffffffffffffffffffff16815260200190815260200160002060008473ffffffffffffffffffffffffffffffffffffffff1673ffffffffffffffffffffffffffffffffffffffff16815260200190815260200160002060006101000a81548160ff0219169083151502179055508173ffffffffffffffffffffffffffffffffffffffff168373ffffffffffffffffffffffffffffffffffffffff167f17307eab39ab6107e8899845ad3d59bd9653f200f220920489ca2b5937696c31836040516114fb9190612921565b60405180910390a3505050565b6001816000016000828254019250508190555050565b600081600001549050919050565b600073ffffffffffffffffffffffffffffffffffffffff168273ffffffffffffffffffffffffffffffffffffffff16141561159c576040517f08c379a000000000000000000000000000000000000000000000000000000000815260040161159390612ad9565b60405180910390fd5b6115a581610e50565b156115e5576040517f08c379a00000000000000000000000000000000000000000000000000000000081526004016115dc906129b9565b60405180910390fd5b6115f160008383611894565b6001600360008473ffffffffffffffffffffffffffffffffffffffff1673ffffffffffffffffffffffffffffffffffffffff16815260200190815260200160002060008282546116419190612ce9565b92505081905550816002600083815260200190815260200160002060006101000a81548173ffffffffffffffffffffffffffffffffffffffff021916908373ffffffffffffffffffffffffffffffffffffffff160217905550808273ffffffffffffffffffffffffffffffffffffffff16600073ffffffffffffffffffffffffffffffffffffffff167fddf252ad1be2c89b69c2b068fc378daa952ba7f163c4a11628f55a4df523b3ef60405160405180910390a461170260008383611899565b5050565b61170f82610e50565b61174e576040517f08c379a000000000000000000000000000000000000000000000000000000000815260040161174590612ab9565b60405180910390fd5b80600660008481526020019081526020016000209080519060200190611775929190611fbc565b505050565b61178584848461105b565b61179184848484611a82565b6117d0576040517f08c379a00000000000000000000000000000000000000000000000000000000081526004016117c790612979565b60405180910390fd5b50505050565b606060405180602001604052806000815250905090565b60606117f882610e50565b611837576040517f08c379a000000000000000000000000000000000000000000000000000000000815260040161182e90612b39565b60405180910390fd5b60006118416117d6565b90506000815111611861576040518060200160405280600081525061188c565b8061186b84611c19565b60405160200161187c92919061286d565b6040516020818303038152906040525b915050919050565b505050565b505050565b60006118a9826108cb565b90506118b781600084611894565b6118c2600083610ec4565b6001600360008373ffffffffffffffffffffffffffffffffffffffff1673ffffffffffffffffffffffffffffffffffffffff16815260200190815260200160002060008282546119129190612d70565b925050819055506002600083815260200190815260200160002060006101000a81549073ffffffffffffffffffffffffffffffffffffffff021916905581600073ffffffffffffffffffffffffffffffffffffffff168273ffffffffffffffffffffffffffffffffffffffff167fddf252ad1be2c89b69c2b068fc378daa952ba7f163c4a11628f55a4df523b3ef60405160405180910390a46119b781600084611899565b5050565b6000611a1d826040518060400160405280602081526020017f5361666545524332303a206c6f772d6c6576656c2063616c6c206661696c65648152508573ffffffffffffffffffffffffffffffffffffffff16611dc69092919063ffffffff16565b9050600081511115611a7d5780806020019051810190611a3d91906123bd565b611a7c576040517f08c379a0000000000000000000000000000000000000000000000000000000008152600401611a7390612bd9565b60405180910390fd5b5b505050565b6000611aa38473ffffffffffffffffffffffffffffffffffffffff16611dde565b15611c0c578373ffffffffffffffffffffffffffffffffffffffff1663150b7a02611acc610ebc565b8786866040518563ffffffff1660e01b8152600401611aee94939291906128ac565b602060405180830381600087803b158015611b0857600080fd5b505af1925050508015611b3957506040513d601f19601f82011682018060405250810190611b36919061240f565b60015b611bbc573d8060008114611b69576040519150601f19603f3d011682016040523d82523d6000602084013e611b6e565b606091505b50600081511415611bb4576040517f08c379a0000000000000000000000000000000000000000000000000000000008152600401611bab90612979565b60405180910390fd5b805181602001fd5b63150b7a0260e01b7bffffffffffffffffffffffffffffffffffffffffffffffffffffffff1916817bffffffffffffffffffffffffffffffffffffffffffffffffffffffff191614915050611c11565b600190505b949350505050565b60606000821415611c61576040518060400160405280600181526020017f30000000000000000000000000000000000000000000000000000000000000008152509050611dc1565b600082905060005b60008214611c93578080611c7c90612ee1565b915050600a82611c8c9190612d3f565b9150611c69565b60008167ffffffffffffffff811115611cd5577f4e487b7100000000000000000000000000000000000000000000000000000000600052604160045260246000fd5b6040519080825280601f01601f191660200182016040528015611d075781602001600182028036833780820191505090505b5090505b60008514611dba57600182611d209190612d70565b9150600a85611d2f9190612f2a565b6030611d3b9190612ce9565b60f81b818381518110611d77577f4e487b7100000000000000000000000000000000000000000000000000000000600052603260045260246000fd5b60200101907effffffffffffffffffffffffffffffffffffffffffffffffffffffffffffff1916908160001a905350600a85611db39190612d3f565b9450611d0b565b8093505050505b919050565b6060611dd58484600085611e01565b90509392505050565b6000808273ffffffffffffffffffffffffffffffffffffffff163b119050919050565b606082471015611e46576040517f08c379a0000000000000000000000000000000000000000000000000000000008152600401611e3d90612a19565b60405180910390fd5b611e4f85611dde565b611e8e576040517f08c379a0000000000000000000000000000000000000000000000000000000008152600401611e8590612b99565b60405180910390fd5b6000808673ffffffffffffffffffffffffffffffffffffffff168587604051611eb79190612856565b60006040518083038185875af1925050503d8060008114611ef4576040519150601f19603f3d011682016040523d82523d6000602084013e611ef9565b606091505b5091509150611f09828286611f15565b92505050949350505050565b60608315611f2557829050611f75565b600083511115611f385782518084602001fd5b816040517f08c379a0000000000000000000000000000000000000000000000000000000008152600401611f6c9190612957565b60405180910390fd5b9392505050565b508054611f8890612e7e565b6000825580601f10611f9a5750611fb9565b601f016020900490600052602060002090810190611fb89190612042565b5b50565b828054611fc890612e7e565b90600052602060002090601f016020900481019282611fea5760008555612031565b82601f1061200357805160ff1916838001178555612031565b82800160010185558215612031579182015b82811115612030578251825591602001919060010190612015565b5b50905061203e9190612042565b5090565b5b8082111561205b576000816000905550600101612043565b5090565b600061207261206d84612c39565b612c14565b90508281526020810184848401111561208a57600080fd5b612095848285612e3c565b509392505050565b60006120b06120ab84612c6a565b612c14565b9050828152602081018484840111156120c857600080fd5b6120d3848285612e3c565b509392505050565b6000813590506120ea81613596565b92915050565b6000813590506120ff816135ad565b92915050565b600081519050612114816135ad565b92915050565b600081359050612129816135c4565b92915050565b60008151905061213e816135c4565b92915050565b600082601f83011261215557600080fd5b813561216584826020860161205f565b91505092915050565b600082601f83011261217f57600080fd5b813561218f84826020860161209d565b91505092915050565b6000813590506121a7816135db565b92915050565b6000815190506121bc816135db565b92915050565b6000602082840312156121d457600080fd5b60006121e2848285016120db565b91505092915050565b600080604083850312156121fe57600080fd5b600061220c858286016120db565b925050602061221d858286016120db565b9150509250929050565b60008060006060848603121561223c57600080fd5b600061224a868287016120db565b935050602061225b868287016120db565b925050604061226c86828701612198565b9150509250925092565b6000806000806080858703121561228c57600080fd5b600061229a878288016120db565b94505060206122ab878288016120db565b93505060406122bc87828801612198565b925050606085013567ffffffffffffffff8111156122d957600080fd5b6122e587828801612144565b91505092959194509250565b6000806040838503121561230457600080fd5b6000612312858286016120db565b9250506020612323858286016120f0565b9150509250929050565b6000806040838503121561234057600080fd5b600061234e858286016120db565b925050602083013567ffffffffffffffff81111561236b57600080fd5b6123778582860161216e565b9150509250929050565b6000806040838503121561239457600080fd5b60006123a2858286016120db565b92505060206123b385828601612198565b9150509250929050565b6000602082840312156123cf57600080fd5b60006123dd84828501612105565b91505092915050565b6000602082840312156123f857600080fd5b60006124068482850161211a565b91505092915050565b60006020828403121561242157600080fd5b600061242f8482850161212f565b91505092915050565b60006020828403121561244a57600080fd5b600061245884828501612198565b91505092915050565b60006020828403121561247357600080fd5b6000612481848285016121ad565b91505092915050565b61249381612da4565b82525050565b6124a281612db6565b82525050565b60006124b382612c9b565b6124bd8185612cb1565b93506124cd818560208601612e4b565b6124d681613017565b840191505092915050565b60006124ec82612c9b565b6124f68185612cc2565b9350612506818560208601612e4b565b80840191505092915050565b61251b81612e18565b82525050565b600061252c82612ca6565b6125368185612ccd565b9350612546818560208601612e4b565b61254f81613017565b840191505092915050565b600061256582612ca6565b61256f8185612cde565b935061257f818560208601612e4b565b80840191505092915050565b6000612598603283612ccd565b91506125a382613028565b604082019050919050565b60006125bb602583612ccd565b91506125c682613077565b604082019050919050565b60006125de601c83612ccd565b91506125e9826130c6565b602082019050919050565b6000612601602483612ccd565b915061260c826130ef565b604082019050919050565b6000612624601983612ccd565b915061262f8261313e565b602082019050919050565b6000612647602683612ccd565b915061265282613167565b604082019050919050565b600061266a602c83612ccd565b9150612675826131b6565b604082019050919050565b600061268d603883612ccd565b915061269882613205565b604082019050919050565b60006126b0602a83612ccd565b91506126bb82613254565b604082019050919050565b60006126d3602983612ccd565b91506126de826132a3565b604082019050919050565b60006126f6602e83612ccd565b9150612701826132f2565b604082019050919050565b6000612719602083612ccd565b915061272482613341565b602082019050919050565b600061273c603183612ccd565b91506127478261336a565b604082019050919050565b600061275f602c83612ccd565b915061276a826133b9565b604082019050919050565b6000612782602f83612ccd565b915061278d82613408565b604082019050919050565b60006127a5602183612ccd565b91506127b082613457565b604082019050919050565b60006127c8603183612ccd565b91506127d3826134a6565b604082019050919050565b60006127eb601d83612ccd565b91506127f6826134f5565b602082019050919050565b600061280e601383612ccd565b91506128198261351e565b602082019050919050565b6000612831602a83612ccd565b915061283c82613547565b604082019050919050565b61285081612e0e565b82525050565b600061286282846124e1565b915081905092915050565b6000612879828561255a565b9150612885828461255a565b91508190509392505050565b60006020820190506128a6600083018461248a565b92915050565b60006080820190506128c1600083018761248a565b6128ce602083018661248a565b6128db6040830185612847565b81810360608301526128ed81846124a8565b905095945050505050565b600060408201905061290d600083018561248a565b61291a6020830184612847565b9392505050565b60006020820190506129366000830184612499565b92915050565b60006020820190506129516000830184612512565b92915050565b600060208201905081810360008301526129718184612521565b905092915050565b600060208201905081810360008301526129928161258b565b9050919050565b600060208201905081810360008301526129b2816125ae565b9050919050565b600060208201905081810360008301526129d2816125d1565b9050919050565b600060208201905081810360008301526129f2816125f4565b9050919050565b60006020820190508181036000830152612a1281612617565b9050919050565b60006020820190508181036000830152612a328161263a565b9050919050565b60006020820190508181036000830152612a528161265d565b9050919050565b60006020820190508181036000830152612a7281612680565b9050919050565b60006020820190508181036000830152612a92816126a3565b9050919050565b60006020820190508181036000830152612ab2816126c6565b9050919050565b60006020820190508181036000830152612ad2816126e9565b9050919050565b60006020820190508181036000830152612af28161270c565b9050919050565b60006020820190508181036000830152612b128161272f565b9050919050565b60006020820190508181036000830152612b3281612752565b9050919050565b60006020820190508181036000830152612b5281612775565b9050919050565b60006020820190508181036000830152612b7281612798565b9050919050565b60006020820190508181036000830152612b92816127bb565b9050919050565b60006020820190508181036000830152612bb2816127de565b9050919050565b60006020820190508181036000830152612bd281612801565b9050919050565b60006020820190508181036000830152612bf281612824565b9050919050565b6000602082019050612c0e6000830184612847565b92915050565b6000612c1e612c2f565b9050612c2a8282612eb0565b919050565b6000604051905090565b600067ffffffffffffffff821115612c5457612c53612fe8565b5b612c5d82613017565b9050602081019050919050565b600067ffffffffffffffff821115612c8557612c84612fe8565b5b612c8e82613017565b9050602081019050919050565b600081519050919050565b600081519050919050565b600082825260208201905092915050565b600081905092915050565b600082825260208201905092915050565b600081905092915050565b6000612cf482612e0e565b9150612cff83612e0e565b9250827fffffffffffffffffffffffffffffffffffffffffffffffffffffffffffffffff03821115612d3457612d33612f5b565b5b828201905092915050565b6000612d4a82612e0e565b9150612d5583612e0e565b925082612d6557612d64612f8a565b5b828204905092915050565b6000612d7b82612e0e565b9150612d8683612e0e565b925082821015612d9957612d98612f5b565b5b828203905092915050565b6000612daf82612dee565b9050919050565b60008115159050919050565b60007fffffffff0000000000000000000000000000000000000000000000000000000082169050919050565b600073ffffffffffffffffffffffffffffffffffffffff82169050919050565b6000819050919050565b6000612e2382612e2a565b9050919050565b6000612e3582612dee565b9050919050565b82818337600083830152505050565b60005b83811015612e69578082015181840152602081019050612e4e565b83811115612e78576000848401525b50505050565b60006002820490506001821680612e9657607f821691505b60208210811415612eaa57612ea9612fb9565b5b50919050565b612eb982613017565b810181811067ffffffffffffffff82111715612ed857612ed7612fe8565b5b80604052505050565b6000612eec82612e0e565b91507fffffffffffffffffffffffffffffffffffffffffffffffffffffffffffffffff821415612f1f57612f1e612f5b565b5b600182019050919050565b6000612f3582612e0e565b9150612f4083612e0e565b925082612f5057612f4f612f8a565b5b828206905092915050565b7f4e487b7100000000000000000000000000000000000000000000000000000000600052601160045260246000fd5b7f4e487b7100000000000000000000000000000000000000000000000000000000600052601260045260246000fd5b7f4e487b7100000000000000000000000000000000000000000000000000000000600052602260045260246000fd5b7f4e487b7100000000000000000000000000000000000000000000000000000000600052604160045260246000fd5b6000601f19601f8301169050919050565b7f4552433732313a207472616e7366657220746f206e6f6e20455243373231526560008201527f63656976657220696d706c656d656e7465720000000000000000000000000000602082015250565b7f4552433732313a207472616e736665722066726f6d20696e636f72726563742060008201527f6f776e6572000000000000000000000000000000000000000000000000000000602082015250565b7f4552433732313a20746f6b656e20616c7265616479206d696e74656400000000600082015250565b7f4552433732313a207472616e7366657220746f20746865207a65726f2061646460008201527f7265737300000000000000000000000000000000000000000000000000000000602082015250565b7f4552433732313a20617070726f766520746f2063616c6c657200000000000000600082015250565b7f416464726573733a20696e73756666696369656e742062616c616e636520666f60008201527f722063616c6c0000000000000000000000000000000000000000000000000000602082015250565b7f4552433732313a206f70657261746f7220717565727920666f72206e6f6e657860008201527f697374656e7420746f6b656e0000000000000000000000000000000000000000602082015250565b7f4552433732313a20617070726f76652063616c6c6572206973206e6f74206f7760008201527f6e6572206e6f7220617070726f76656420666f7220616c6c0000000000000000602082015250565b7f4552433732313a2062616c616e636520717565727920666f7220746865207a6560008201527f726f206164647265737300000000000000000000000000000000000000000000602082015250565b7f4552433732313a206f776e657220717565727920666f72206e6f6e657869737460008201527f656e7420746f6b656e0000000000000000000000000000000000000000000000602082015250565b7f45524337323155524953746f726167653a2055524920736574206f66206e6f6e60008201527f6578697374656e7420746f6b656e000000000000000000000000000000000000602082015250565b7f4552433732313a206d696e7420746f20746865207a65726f2061646472657373600082015250565b7f45524337323155524953746f726167653a2055524920717565727920666f722060008201527f6e6f6e6578697374656e7420746f6b656e000000000000000000000000000000602082015250565b7f4552433732313a20617070726f76656420717565727920666f72206e6f6e657860008201527f697374656e7420746f6b656e0000000000000000000000000000000000000000602082015250565b7f4552433732314d657461646174613a2055524920717565727920666f72206e6f60008201527f6e6578697374656e7420746f6b656e0000000000000000000000000000000000602082015250565b7f4552433732313a20617070726f76616c20746f2063757272656e74206f776e6560008201527f7200000000000000000000000000000000000000000000000000000000000000602082015250565b7f4552433732313a207472616e736665722063616c6c6572206973206e6f74206f60008201527f776e6572206e6f7220617070726f766564000000000000000000000000000000602082015250565b7f416464726573733a2063616c6c20746f206e6f6e2d636f6e7472616374000000600082015250565b7f496e646578206f7574206f6620626f756e647300000000000000000000000000600082015250565b7f5361666545524332303a204552433230206f7065726174696f6e20646964206e60008201527f6f74207375636365656400000000000000000000000000000000000000000000602082015250565b61359f81612da4565b81146135aa57600080fd5b50565b6135b681612db6565b81146135c157600080fd5b50565b6135cd81612dc2565b81146135d857600080fd5b50565b6135e481612e0e565b81146135ef57600080fd5b5056fea2646970667358221220fddd9a224ddc827e1f15b008bd849a61c4f0a5188958d51ea5ce024ecae2780064736f6c63430008030033",
  "immutableReferences": {},
  "source": "// SPDX-License-Identifier: UNLICENSED\r\npragma solidity ^0.8.0;\r\n\r\nimport \"@openzeppelin/contracts/token/ERC20/IERC20.sol\";\r\nimport \"@openzeppelin/contracts/utils/Address.sol\";\r\nimport \"@openzeppelin/contracts/token/ERC20/utils/SafeERC20.sol\";\r\nimport \"@openzeppelin/contracts/token/ERC20/ERC20.sol\";\r\nimport \"@openzeppelin/contracts/token/ERC721/extensions/ERC721URIStorage.sol\";\r\nimport \"@openzeppelin/contracts/utils/Counters.sol\";\r\n\r\ncontract DumpHero is ERC721URIStorage {\r\n    using Address for address;\r\n    using SafeERC20 for IERC20;\r\n    using Counters for Counters.Counter;\r\n    IERC20 public token;\r\n    Counters.Counter private _tokenId;\r\n    mapping(address=>mapping(uint=>uint)) private _ownedTokens;\r\n\r\n    constructor(address _token) ERC721(\"DumpBlock\", \"DHERO\") {\r\n        token = IERC20(_token);\r\n    }\r\n\r\n    function mintHero(address player, string memory tokenURI) public returns (uint256) {\r\n        // token.safeTransferFrom(msg.sender, 0x0000000000000000000000000000000000000000, 500 * 10**18);\r\n        _tokenId.increment();\r\n\r\n        uint256 last_id = _tokenId.current();\r\n        uint length = ERC721.balanceOf(player);\r\n        _mint(player, last_id);\r\n        _ownedTokens[player][length] = last_id;\r\n        _setTokenURI(last_id, tokenURI);\r\n\r\n        return last_id;\r\n    }\r\n\r\n    function burn(uint256 tokenId) public {\r\n        _burn(tokenId);\r\n        token.safeTransfer(msg.sender, token.balanceOf(address(this)));\r\n    }\r\n    \r\n    \r\n    function tokenOfOwnerByIndex(address owner,uint index) public view returns(uint){\r\n        require(index < ERC721.balanceOf(owner), \"Index out of bounds\");\r\n        return _ownedTokens[owner][index];\r\n    }\r\n}",
  "sourcePath": "D:\\Homework\\Dump-Block\\solidity\\contracts\\DumpHero.sol",
  "compiler": {
    "name": "solc",
    "version": "0.8.3+commit.8d00100c.Emscripten.clang"
  },
  "schemaVersion": "3.4.6",
  "updatedAt": "2022-06-05T16:41:37.318Z",
  "networkType": "ethereum",
  "devdoc": {
    "kind": "dev",
    "methods": {
      "approve(address,uint256)": {
        "details": "See {IERC721-approve}."
      },
      "balanceOf(address)": {
        "details": "See {IERC721-balanceOf}."
      },
      "getApproved(uint256)": {
        "details": "See {IERC721-getApproved}."
      },
      "isApprovedForAll(address,address)": {
        "details": "See {IERC721-isApprovedForAll}."
      },
      "name()": {
        "details": "See {IERC721Metadata-name}."
      },
      "ownerOf(uint256)": {
        "details": "See {IERC721-ownerOf}."
      },
      "safeTransferFrom(address,address,uint256)": {
        "details": "See {IERC721-safeTransferFrom}."
      },
      "safeTransferFrom(address,address,uint256,bytes)": {
        "details": "See {IERC721-safeTransferFrom}."
      },
      "setApprovalForAll(address,bool)": {
        "details": "See {IERC721-setApprovalForAll}."
      },
      "supportsInterface(bytes4)": {
        "details": "See {IERC165-supportsInterface}."
      },
      "symbol()": {
        "details": "See {IERC721Metadata-symbol}."
      },
      "tokenURI(uint256)": {
        "details": "See {IERC721Metadata-tokenURI}."
      },
      "transferFrom(address,address,uint256)": {
        "details": "See {IERC721-transferFrom}."
      }
    },
    "version": 1
  },
  "userdoc": {
    "kind": "user",
    "methods": {},
    "version": 1
  }
}