{
  "contractName": "DumpBlockAccount",
  "abi": [
    {
      "inputs": [
        {
          "internalType": "address",
          "name": "_token",
          "type": "address"
        }
      ],
      "stateMutability": "nonpayable",
      "type": "constructor"
    },
    {
      "anonymous": false,
      "inputs": [
        {
          "indexed": true,
          "internalType": "address",
          "name": "owner",
          "type": "address"
        },
        {
          "indexed": true,
          "internalType": "address",
          "name": "spender",
          "type": "address"
        },
        {
          "indexed": false,
          "internalType": "uint256",
          "name": "value",
          "type": "uint256"
        }
      ],
      "name": "Approval",
      "type": "event"
    },
    {
      "anonymous": false,
      "inputs": [
        {
          "indexed": true,
          "internalType": "address",
          "name": "from",
          "type": "address"
        },
        {
          "indexed": true,
          "internalType": "address",
          "name": "to",
          "type": "address"
        },
        {
          "indexed": false,
          "internalType": "uint256",
          "name": "value",
          "type": "uint256"
        }
      ],
      "name": "Transfer",
      "type": "event"
    },
    {
      "inputs": [
        {
          "internalType": "address",
          "name": "owner",
          "type": "address"
        },
        {
          "internalType": "address",
          "name": "spender",
          "type": "address"
        }
      ],
      "name": "allowance",
      "outputs": [
        {
          "internalType": "uint256",
          "name": "",
          "type": "uint256"
        }
      ],
      "stateMutability": "view",
      "type": "function",
      "constant": true
    },
    {
      "inputs": [
        {
          "internalType": "address",
          "name": "spender",
          "type": "address"
        },
        {
          "internalType": "uint256",
          "name": "amount",
          "type": "uint256"
        }
      ],
      "name": "approve",
      "outputs": [
        {
          "internalType": "bool",
          "name": "",
          "type": "bool"
        }
      ],
      "stateMutability": "nonpayable",
      "type": "function"
    },
    {
      "inputs": [
        {
          "internalType": "address",
          "name": "account",
          "type": "address"
        }
      ],
      "name": "balanceOf",
      "outputs": [
        {
          "internalType": "uint256",
          "name": "",
          "type": "uint256"
        }
      ],
      "stateMutability": "view",
      "type": "function",
      "constant": true
    },
    {
      "inputs": [],
      "name": "decimals",
      "outputs": [
        {
          "internalType": "uint8",
          "name": "",
          "type": "uint8"
        }
      ],
      "stateMutability": "view",
      "type": "function",
      "constant": true
    },
    {
      "inputs": [
        {
          "internalType": "address",
          "name": "spender",
          "type": "address"
        },
        {
          "internalType": "uint256",
          "name": "subtractedValue",
          "type": "uint256"
        }
      ],
      "name": "decreaseAllowance",
      "outputs": [
        {
          "internalType": "bool",
          "name": "",
          "type": "bool"
        }
      ],
      "stateMutability": "nonpayable",
      "type": "function"
    },
    {
      "inputs": [
        {
          "internalType": "address",
          "name": "spender",
          "type": "address"
        },
        {
          "internalType": "uint256",
          "name": "addedValue",
          "type": "uint256"
        }
      ],
      "name": "increaseAllowance",
      "outputs": [
        {
          "internalType": "bool",
          "name": "",
          "type": "bool"
        }
      ],
      "stateMutability": "nonpayable",
      "type": "function"
    },
    {
      "inputs": [],
      "name": "name",
      "outputs": [
        {
          "internalType": "string",
          "name": "",
          "type": "string"
        }
      ],
      "stateMutability": "view",
      "type": "function",
      "constant": true
    },
    {
      "inputs": [],
      "name": "symbol",
      "outputs": [
        {
          "internalType": "string",
          "name": "",
          "type": "string"
        }
      ],
      "stateMutability": "view",
      "type": "function",
      "constant": true
    },
    {
      "inputs": [],
      "name": "token",
      "outputs": [
        {
          "internalType": "contract IERC20",
          "name": "",
          "type": "address"
        }
      ],
      "stateMutability": "view",
      "type": "function",
      "constant": true
    },
    {
      "inputs": [],
      "name": "totalSupply",
      "outputs": [
        {
          "internalType": "uint256",
          "name": "",
          "type": "uint256"
        }
      ],
      "stateMutability": "view",
      "type": "function",
      "constant": true
    },
    {
      "inputs": [
        {
          "internalType": "address",
          "name": "to",
          "type": "address"
        },
        {
          "internalType": "uint256",
          "name": "amount",
          "type": "uint256"
        }
      ],
      "name": "transfer",
      "outputs": [
        {
          "internalType": "bool",
          "name": "",
          "type": "bool"
        }
      ],
      "stateMutability": "nonpayable",
      "type": "function"
    },
    {
      "inputs": [
        {
          "internalType": "address",
          "name": "from",
          "type": "address"
        },
        {
          "internalType": "address",
          "name": "to",
          "type": "address"
        },
        {
          "internalType": "uint256",
          "name": "amount",
          "type": "uint256"
        }
      ],
      "name": "transferFrom",
      "outputs": [
        {
          "internalType": "bool",
          "name": "",
          "type": "bool"
        }
      ],
      "stateMutability": "nonpayable",
      "type": "function"
    },
    {
      "inputs": [],
      "name": "balance",
      "outputs": [
        {
          "internalType": "uint256",
          "name": "",
          "type": "uint256"
        }
      ],
      "stateMutability": "view",
      "type": "function",
      "constant": true
    },
    {
      "inputs": [
        {
          "internalType": "uint256",
          "name": "_amount",
          "type": "uint256"
        }
      ],
      "name": "deposit",
      "outputs": [],
      "stateMutability": "nonpayable",
      "type": "function"
    },
    {
      "inputs": [
        {
          "internalType": "uint256",
          "name": "_amount",
          "type": "uint256"
        }
      ],
      "name": "withdraw",
      "outputs": [],
      "stateMutability": "nonpayable",
      "type": "function"
    },
    {
      "inputs": [
        {
          "internalType": "uint256",
          "name": "_amount",
          "type": "uint256"
        }
      ],
      "name": "mint",
      "outputs": [],
      "stateMutability": "nonpayable",
      "type": "function"
    },
    {
      "inputs": [
        {
          "internalType": "uint256",
          "name": "_amount",
          "type": "uint256"
        }
      ],
      "name": "burn",
      "outputs": [],
      "stateMutability": "nonpayable",
      "type": "function"
    },
    {
      "inputs": [
        {
          "internalType": "uint256",
          "name": "_amount",
          "type": "uint256"
        }
      ],
      "name": "mintPass",
      "outputs": [],
      "stateMutability": "nonpayable",
      "type": "function"
    },
    {
      "inputs": [
        {
          "internalType": "uint256",
          "name": "_amount",
          "type": "uint256"
        }
      ],
      "name": "burnPass",
      "outputs": [],
      "stateMutability": "nonpayable",
      "type": "function"
    },
    {
      "inputs": [
        {
          "internalType": "address",
          "name": "owner",
          "type": "address"
        }
      ],
      "name": "getPassAmount",
      "outputs": [
        {
          "internalType": "uint256",
          "name": "",
          "type": "uint256"
        }
      ],
      "stateMutability": "view",
      "type": "function",
      "constant": true
    }
  ],
  "bytecode": "0x60806040523480156200001157600080fd5b50604051620027ee380380620027ee8339818101604052810190620000379190620001e6565b6040518060400160405280601181526020017f44756d70426c6f636b204163636f756e740000000000000000000000000000008152506040518060400160405280600481526020017f44425441000000000000000000000000000000000000000000000000000000008152508160039080519060200190620000bb9291906200011f565b508060049080519060200190620000d49291906200011f565b50505080600560006101000a81548173ffffffffffffffffffffffffffffffffffffffff021916908373ffffffffffffffffffffffffffffffffffffffff16021790555050620002c5565b8280546200012d9062000246565b90600052602060002090601f0160209004810192826200015157600085556200019d565b82601f106200016c57805160ff19168380011785556200019d565b828001600101855582156200019d579182015b828111156200019c5782518255916020019190600101906200017f565b5b509050620001ac9190620001b0565b5090565b5b80821115620001cb576000816000905550600101620001b1565b5090565b600081519050620001e081620002ab565b92915050565b600060208284031215620001f957600080fd5b60006200020984828501620001cf565b91505092915050565b60006200021f8262000226565b9050919050565b600073ffffffffffffffffffffffffffffffffffffffff82169050919050565b600060028204905060018216806200025f57607f821691505b602082108114156200027657620002756200027c565b5b50919050565b7f4e487b7100000000000000000000000000000000000000000000000000000000600052602260045260246000fd5b620002b68162000212565b8114620002c257600080fd5b50565b61251980620002d56000396000f3fe608060405234801561001057600080fd5b506004361061012c5760003560e01c806370a08231116100ad578063b69ef8a811610071578063b69ef8a814610355578063b6b55f2514610373578063cffc64dc1461038f578063dd62ed3e146103bf578063fc0c546a146103ef5761012c565b806370a082311461028b57806395d89b41146102bb578063a0712d68146102d9578063a457c2d7146102f5578063a9059cbb146103255761012c565b8063313ce567116100f4578063313ce567146101e9578063395093511461020757806342966c68146102375780634f0b47f1146102535780634f28e6801461026f5761012c565b806306fdde0314610131578063095ea7b31461014f57806318160ddd1461017f57806323b872dd1461019d5780632e1a7d4d146101cd575b600080fd5b61013961040d565b6040516101469190611c20565b60405180910390f35b610169600480360381019061016491906117df565b61049f565b6040516101769190611bea565b60405180910390f35b6101876104c2565b6040516101949190611e22565b60405180910390f35b6101b760048036038101906101b29190611790565b6104cc565b6040516101c49190611bea565b60405180910390f35b6101e760048036038101906101e29190611844565b6104fb565b005b6101f1610555565b6040516101fe9190611e3d565b60405180910390f35b610221600480360381019061021c91906117df565b61055e565b60405161022e9190611bea565b60405180910390f35b610251600480360381019061024c9190611844565b610595565b005b61026d60048036038101906102689190611844565b6105a2565b005b61028960048036038101906102849190611844565b6105fb565b005b6102a560048036038101906102a0919061172b565b610762565b6040516102b29190611e22565b60405180910390f35b6102c36107aa565b6040516102d09190611c20565b60405180910390f35b6102f360048036038101906102ee9190611844565b61083c565b005b61030f600480360381019061030a91906117df565b610849565b60405161031c9190611bea565b60405180910390f35b61033f600480360381019061033a91906117df565b6108c0565b60405161034c9190611bea565b60405180910390f35b61035d6108e3565b60405161036a9190611e22565b60405180910390f35b61038d60048036038101906103889190611844565b610995565b005b6103a960048036038101906103a4919061172b565b610a34565b6040516103b69190611e22565b60405180910390f35b6103d960048036038101906103d49190611754565b610a7d565b6040516103e69190611e22565b60405180910390f35b6103f7610b04565b6040516104049190611c05565b60405180910390f35b60606003805461041c9061201a565b80601f01602080910402602001604051908101604052809291908181526020018280546104489061201a565b80156104955780601f1061046a57610100808354040283529160200191610495565b820191906000526020600020905b81548152906001019060200180831161047857829003601f168201915b5050505050905090565b6000806104aa610b2a565b90506104b7818585610b32565b600191505092915050565b6000600254905090565b6000806104d7610b2a565b90506104e4858285610cfd565b6104ef858585610d89565b60019150509392505050565b610505338261100a565b6105523382600560009054906101000a900473ffffffffffffffffffffffffffffffffffffffff1673ffffffffffffffffffffffffffffffffffffffff166111e19092919063ffffffff16565b50565b60006012905090565b600080610569610b2a565b905061058a81858561057b8589610a7d565b6105859190611e8a565b610b32565b600191505092915050565b61059f338261100a565b50565b80600660003373ffffffffffffffffffffffffffffffffffffffff1673ffffffffffffffffffffffffffffffffffffffff16815260200190815260200160002060008282546105f19190611f3a565b9250508190555050565b6064816106089190611ee0565b600560009054906101000a900473ffffffffffffffffffffffffffffffffffffffff1673ffffffffffffffffffffffffffffffffffffffff166370a08231336040518263ffffffff1660e01b81526004016106639190611b6f565b60206040518083038186803b15801561067b57600080fd5b505afa15801561068f573d6000803e3d6000fd5b505050506040513d601f19601f820116820180604052508101906106b3919061186d565b116106f3576040517f08c379a00000000000000000000000000000000000000000000000000000000081526004016106ea90611d02565b60405180910390fd5b610709336064836107049190611ee0565b61100a565b80600660003373ffffffffffffffffffffffffffffffffffffffff1673ffffffffffffffffffffffffffffffffffffffff16815260200190815260200160002060008282546107589190611e8a565b9250508190555050565b60008060008373ffffffffffffffffffffffffffffffffffffffff1673ffffffffffffffffffffffffffffffffffffffff168152602001908152602001600020549050919050565b6060600480546107b99061201a565b80601f01602080910402602001604051908101604052809291908181526020018280546107e59061201a565b80156108325780601f1061080757610100808354040283529160200191610832565b820191906000526020600020905b81548152906001019060200180831161081557829003601f168201915b5050505050905090565b6108463382611267565b50565b600080610854610b2a565b905060006108628286610a7d565b9050838110156108a7576040517f08c379a000000000000000000000000000000000000000000000000000000000815260040161089e90611de2565b60405180910390fd5b6108b48286868403610b32565b60019250505092915050565b6000806108cb610b2a565b90506108d8818585610d89565b600191505092915050565b6000600560009054906101000a900473ffffffffffffffffffffffffffffffffffffffff1673ffffffffffffffffffffffffffffffffffffffff166370a08231306040518263ffffffff1660e01b81526004016109409190611b6f565b60206040518083038186803b15801561095857600080fd5b505afa15801561096c573d6000803e3d6000fd5b505050506040513d601f19601f82011682018060405250810190610990919061186d565b905090565b600081116109d8576040517f08c379a00000000000000000000000000000000000000000000000000000000081526004016109cf90611d22565b60405180910390fd5b610a27333083600560009054906101000a900473ffffffffffffffffffffffffffffffffffffffff1673ffffffffffffffffffffffffffffffffffffffff166113c7909392919063ffffffff16565b610a313382611267565b50565b6000600660008373ffffffffffffffffffffffffffffffffffffffff1673ffffffffffffffffffffffffffffffffffffffff168152602001908152602001600020549050919050565b6000600160008473ffffffffffffffffffffffffffffffffffffffff1673ffffffffffffffffffffffffffffffffffffffff16815260200190815260200160002060008373ffffffffffffffffffffffffffffffffffffffff1673ffffffffffffffffffffffffffffffffffffffff16815260200190815260200160002054905092915050565b600560009054906101000a900473ffffffffffffffffffffffffffffffffffffffff1681565b600033905090565b600073ffffffffffffffffffffffffffffffffffffffff168373ffffffffffffffffffffffffffffffffffffffff161415610ba2576040517f08c379a0000000000000000000000000000000000000000000000000000000008152600401610b9990611d82565b60405180910390fd5b600073ffffffffffffffffffffffffffffffffffffffff168273ffffffffffffffffffffffffffffffffffffffff161415610c12576040517f08c379a0000000000000000000000000000000000000000000000000000000008152600401610c0990611c82565b60405180910390fd5b80600160008573ffffffffffffffffffffffffffffffffffffffff1673ffffffffffffffffffffffffffffffffffffffff16815260200190815260200160002060008473ffffffffffffffffffffffffffffffffffffffff1673ffffffffffffffffffffffffffffffffffffffff168152602001908152602001600020819055508173ffffffffffffffffffffffffffffffffffffffff168373ffffffffffffffffffffffffffffffffffffffff167f8c5be1e5ebec7d5bd14f71427d1e84f3dd0314c0f7b2291e5b200ac8c7c3b92583604051610cf09190611e22565b60405180910390a3505050565b6000610d098484610a7d565b90507fffffffffffffffffffffffffffffffffffffffffffffffffffffffffffffffff8114610d835781811015610d75576040517f08c379a0000000000000000000000000000000000000000000000000000000008152600401610d6c90611ca2565b60405180910390fd5b610d828484848403610b32565b5b50505050565b600073ffffffffffffffffffffffffffffffffffffffff168373ffffffffffffffffffffffffffffffffffffffff161415610df9576040517f08c379a0000000000000000000000000000000000000000000000000000000008152600401610df090611d62565b60405180910390fd5b600073ffffffffffffffffffffffffffffffffffffffff168273ffffffffffffffffffffffffffffffffffffffff161415610e69576040517f08c379a0000000000000000000000000000000000000000000000000000000008152600401610e6090611c42565b60405180910390fd5b610e74838383611450565b60008060008573ffffffffffffffffffffffffffffffffffffffff1673ffffffffffffffffffffffffffffffffffffffff16815260200190815260200160002054905081811015610efa576040517f08c379a0000000000000000000000000000000000000000000000000000000008152600401610ef190611cc2565b60405180910390fd5b8181036000808673ffffffffffffffffffffffffffffffffffffffff1673ffffffffffffffffffffffffffffffffffffffff16815260200190815260200160002081905550816000808573ffffffffffffffffffffffffffffffffffffffff1673ffffffffffffffffffffffffffffffffffffffff1681526020019081526020016000206000828254610f8d9190611e8a565b925050819055508273ffffffffffffffffffffffffffffffffffffffff168473ffffffffffffffffffffffffffffffffffffffff167fddf252ad1be2c89b69c2b068fc378daa952ba7f163c4a11628f55a4df523b3ef84604051610ff19190611e22565b60405180910390a3611004848484611455565b50505050565b600073ffffffffffffffffffffffffffffffffffffffff168273ffffffffffffffffffffffffffffffffffffffff16141561107a576040517f08c379a000000000000000000000000000000000000000000000000000000000815260040161107190611d42565b60405180910390fd5b61108682600083611450565b60008060008473ffffffffffffffffffffffffffffffffffffffff1673ffffffffffffffffffffffffffffffffffffffff1681526020019081526020016000205490508181101561110c576040517f08c379a000000000000000000000000000000000000000000000000000000000815260040161110390611c62565b60405180910390fd5b8181036000808573ffffffffffffffffffffffffffffffffffffffff1673ffffffffffffffffffffffffffffffffffffffff1681526020019081526020016000208190555081600260008282546111639190611f3a565b92505081905550600073ffffffffffffffffffffffffffffffffffffffff168373ffffffffffffffffffffffffffffffffffffffff167fddf252ad1be2c89b69c2b068fc378daa952ba7f163c4a11628f55a4df523b3ef846040516111c89190611e22565b60405180910390a36111dc83600084611455565b505050565b6112628363a9059cbb60e01b8484604051602401611200929190611bc1565b604051602081830303815290604052907bffffffffffffffffffffffffffffffffffffffffffffffffffffffff19166020820180517bffffffffffffffffffffffffffffffffffffffffffffffffffffffff838183161783525050505061145a565b505050565b600073ffffffffffffffffffffffffffffffffffffffff168273ffffffffffffffffffffffffffffffffffffffff1614156112d7576040517f08c379a00000000000000000000000000000000000000000000000000000000081526004016112ce90611e02565b60405180910390fd5b6112e360008383611450565b80600260008282546112f59190611e8a565b92505081905550806000808473ffffffffffffffffffffffffffffffffffffffff1673ffffffffffffffffffffffffffffffffffffffff168152602001908152602001600020600082825461134a9190611e8a565b925050819055508173ffffffffffffffffffffffffffffffffffffffff16600073ffffffffffffffffffffffffffffffffffffffff167fddf252ad1be2c89b69c2b068fc378daa952ba7f163c4a11628f55a4df523b3ef836040516113af9190611e22565b60405180910390a36113c360008383611455565b5050565b61144a846323b872dd60e01b8585856040516024016113e893929190611b8a565b604051602081830303815290604052907bffffffffffffffffffffffffffffffffffffffffffffffffffffffff19166020820180517bffffffffffffffffffffffffffffffffffffffffffffffffffffffff838183161783525050505061145a565b50505050565b505050565b505050565b60006114bc826040518060400160405280602081526020017f5361666545524332303a206c6f772d6c6576656c2063616c6c206661696c65648152508573ffffffffffffffffffffffffffffffffffffffff166115219092919063ffffffff16565b905060008151111561151c57808060200190518101906114dc919061181b565b61151b576040517f08c379a000000000000000000000000000000000000000000000000000000000815260040161151290611dc2565b60405180910390fd5b5b505050565b60606115308484600085611539565b90509392505050565b60608247101561157e576040517f08c379a000000000000000000000000000000000000000000000000000000000815260040161157590611ce2565b60405180910390fd5b6115878561164d565b6115c6576040517f08c379a00000000000000000000000000000000000000000000000000000000081526004016115bd90611da2565b60405180910390fd5b6000808673ffffffffffffffffffffffffffffffffffffffff1685876040516115ef9190611b58565b60006040518083038185875af1925050503d806000811461162c576040519150601f19603f3d011682016040523d82523d6000602084013e611631565b606091505b5091509150611641828286611670565b92505050949350505050565b6000808273ffffffffffffffffffffffffffffffffffffffff163b119050919050565b60608315611680578290506116d0565b6000835111156116935782518084602001fd5b816040517f08c379a00000000000000000000000000000000000000000000000000000000081526004016116c79190611c20565b60405180910390fd5b9392505050565b6000813590506116e68161249e565b92915050565b6000815190506116fb816124b5565b92915050565b600081359050611710816124cc565b92915050565b600081519050611725816124cc565b92915050565b60006020828403121561173d57600080fd5b600061174b848285016116d7565b91505092915050565b6000806040838503121561176757600080fd5b6000611775858286016116d7565b9250506020611786858286016116d7565b9150509250929050565b6000806000606084860312156117a557600080fd5b60006117b3868287016116d7565b93505060206117c4868287016116d7565b92505060406117d586828701611701565b9150509250925092565b600080604083850312156117f257600080fd5b6000611800858286016116d7565b925050602061181185828601611701565b9150509250929050565b60006020828403121561182d57600080fd5b600061183b848285016116ec565b91505092915050565b60006020828403121561185657600080fd5b600061186484828501611701565b91505092915050565b60006020828403121561187f57600080fd5b600061188d84828501611716565b91505092915050565b61189f81611f6e565b82525050565b6118ae81611f80565b82525050565b60006118bf82611e58565b6118c98185611e6e565b93506118d9818560208601611fe7565b80840191505092915050565b6118ee81611fc3565b82525050565b60006118ff82611e63565b6119098185611e79565b9350611919818560208601611fe7565b611922816120aa565b840191505092915050565b600061193a602383611e79565b9150611945826120bb565b604082019050919050565b600061195d602283611e79565b91506119688261210a565b604082019050919050565b6000611980602283611e79565b915061198b82612159565b604082019050919050565b60006119a3601d83611e79565b91506119ae826121a8565b602082019050919050565b60006119c6602683611e79565b91506119d1826121d1565b604082019050919050565b60006119e9602683611e79565b91506119f482612220565b604082019050919050565b6000611a0c601183611e79565b9150611a178261226f565b602082019050919050565b6000611a2f601583611e79565b9150611a3a82612298565b602082019050919050565b6000611a52602183611e79565b9150611a5d826122c1565b604082019050919050565b6000611a75602583611e79565b9150611a8082612310565b604082019050919050565b6000611a98602483611e79565b9150611aa38261235f565b604082019050919050565b6000611abb601d83611e79565b9150611ac6826123ae565b602082019050919050565b6000611ade602a83611e79565b9150611ae9826123d7565b604082019050919050565b6000611b01602583611e79565b9150611b0c82612426565b604082019050919050565b6000611b24601f83611e79565b9150611b2f82612475565b602082019050919050565b611b4381611fac565b82525050565b611b5281611fb6565b82525050565b6000611b6482846118b4565b915081905092915050565b6000602082019050611b846000830184611896565b92915050565b6000606082019050611b9f6000830186611896565b611bac6020830185611896565b611bb96040830184611b3a565b949350505050565b6000604082019050611bd66000830185611896565b611be36020830184611b3a565b9392505050565b6000602082019050611bff60008301846118a5565b92915050565b6000602082019050611c1a60008301846118e5565b92915050565b60006020820190508181036000830152611c3a81846118f4565b905092915050565b60006020820190508181036000830152611c5b8161192d565b9050919050565b60006020820190508181036000830152611c7b81611950565b9050919050565b60006020820190508181036000830152611c9b81611973565b9050919050565b60006020820190508181036000830152611cbb81611996565b9050919050565b60006020820190508181036000830152611cdb816119b9565b9050919050565b60006020820190508181036000830152611cfb816119dc565b9050919050565b60006020820190508181036000830152611d1b816119ff565b9050919050565b60006020820190508181036000830152611d3b81611a22565b9050919050565b60006020820190508181036000830152611d5b81611a45565b9050919050565b60006020820190508181036000830152611d7b81611a68565b9050919050565b60006020820190508181036000830152611d9b81611a8b565b9050919050565b60006020820190508181036000830152611dbb81611aae565b9050919050565b60006020820190508181036000830152611ddb81611ad1565b9050919050565b60006020820190508181036000830152611dfb81611af4565b9050919050565b60006020820190508181036000830152611e1b81611b17565b9050919050565b6000602082019050611e376000830184611b3a565b92915050565b6000602082019050611e526000830184611b49565b92915050565b600081519050919050565b600081519050919050565b600081905092915050565b600082825260208201905092915050565b6000611e9582611fac565b9150611ea083611fac565b9250827fffffffffffffffffffffffffffffffffffffffffffffffffffffffffffffffff03821115611ed557611ed461204c565b5b828201905092915050565b6000611eeb82611fac565b9150611ef683611fac565b9250817fffffffffffffffffffffffffffffffffffffffffffffffffffffffffffffffff0483118215151615611f2f57611f2e61204c565b5b828202905092915050565b6000611f4582611fac565b9150611f5083611fac565b925082821015611f6357611f6261204c565b5b828203905092915050565b6000611f7982611f8c565b9050919050565b60008115159050919050565b600073ffffffffffffffffffffffffffffffffffffffff82169050919050565b6000819050919050565b600060ff82169050919050565b6000611fce82611fd5565b9050919050565b6000611fe082611f8c565b9050919050565b60005b83811015612005578082015181840152602081019050611fea565b83811115612014576000848401525b50505050565b6000600282049050600182168061203257607f821691505b602082108114156120465761204561207b565b5b50919050565b7f4e487b7100000000000000000000000000000000000000000000000000000000600052601160045260246000fd5b7f4e487b7100000000000000000000000000000000000000000000000000000000600052602260045260246000fd5b6000601f19601f8301169050919050565b7f45524332303a207472616e7366657220746f20746865207a65726f206164647260008201527f6573730000000000000000000000000000000000000000000000000000000000602082015250565b7f45524332303a206275726e20616d6f756e7420657863656564732062616c616e60008201527f6365000000000000000000000000000000000000000000000000000000000000602082015250565b7f45524332303a20617070726f766520746f20746865207a65726f20616464726560008201527f7373000000000000000000000000000000000000000000000000000000000000602082015250565b7f45524332303a20696e73756666696369656e7420616c6c6f77616e6365000000600082015250565b7f45524332303a207472616e7366657220616d6f756e742065786365656473206260008201527f616c616e63650000000000000000000000000000000000000000000000000000602082015250565b7f416464726573733a20696e73756666696369656e742062616c616e636520666f60008201527f722063616c6c0000000000000000000000000000000000000000000000000000602082015250565b7f616d6f756e74206e6f7420656e6f756768000000000000000000000000000000600082015250565b7f616d6f756e742063616e6e6f74206265207a65726f0000000000000000000000600082015250565b7f45524332303a206275726e2066726f6d20746865207a65726f2061646472657360008201527f7300000000000000000000000000000000000000000000000000000000000000602082015250565b7f45524332303a207472616e736665722066726f6d20746865207a65726f20616460008201527f6472657373000000000000000000000000000000000000000000000000000000602082015250565b7f45524332303a20617070726f76652066726f6d20746865207a65726f2061646460008201527f7265737300000000000000000000000000000000000000000000000000000000602082015250565b7f416464726573733a2063616c6c20746f206e6f6e2d636f6e7472616374000000600082015250565b7f5361666545524332303a204552433230206f7065726174696f6e20646964206e60008201527f6f74207375636365656400000000000000000000000000000000000000000000602082015250565b7f45524332303a2064656372656173656420616c6c6f77616e63652062656c6f7760008201527f207a65726f000000000000000000000000000000000000000000000000000000602082015250565b7f45524332303a206d696e7420746f20746865207a65726f206164647265737300600082015250565b6124a781611f6e565b81146124b257600080fd5b50565b6124be81611f80565b81146124c957600080fd5b50565b6124d581611fac565b81146124e057600080fd5b5056fea2646970667358221220ddc0ecb91f13a90980d0a1d5de80b227997fe418ebbaf5e3d93dd5ace142521a64736f6c63430008030033",
  "immutableReferences": {},
  "source": "// SPDX-License-Identifier: UNLICENSED\r\n\r\npragma solidity ^0.8.0;\r\n\r\nimport \"@openzeppelin/contracts/token/ERC20/IERC20.sol\";\r\nimport \"@openzeppelin/contracts/utils/Address.sol\";\r\nimport \"@openzeppelin/contracts/token/ERC20/utils/SafeERC20.sol\";\r\nimport \"@openzeppelin/contracts/token/ERC20/ERC20.sol\";\r\n\r\ncontract DumpBlockAccount is ERC20 {\r\n    using Address for address;\r\n    using SafeERC20 for IERC20;\r\n\r\n    IERC20 public token;\r\n\r\n    mapping(address=>uint) private _ownedPass;\r\n\r\n    constructor(address _token) ERC20(\"DumpBlock Account\", \"DBTA\") {\r\n        token = IERC20(_token);\r\n    }\r\n\r\n\r\n    function balance() public view returns (uint256) {\r\n        return token.balanceOf(address(this));\r\n    }\r\n\r\n    function deposit(uint256 _amount) public {\r\n        require(_amount > 0, \"amount cannot be zero\");\r\n        token.safeTransferFrom(msg.sender, address(this), _amount);\r\n        _mint(msg.sender, _amount);\r\n    }\r\n\r\n    function withdraw(uint256 _amount) public {\r\n        _burn(msg.sender, _amount);\r\n        token.safeTransfer(msg.sender, _amount);\r\n    }\r\n\r\n    function mint(uint256 _amount) public {\r\n        _mint(msg.sender, _amount);\r\n    }\r\n\r\n    function burn(uint256 _amount) public {\r\n        _burn(msg.sender, _amount);\r\n    }\r\n\r\n    function mintPass(uint256 _amount) public {\r\n        require(token.balanceOf(msg.sender) > _amount * 100, \"amount not enough\");\r\n        _burn(msg.sender, _amount * 100);\r\n        _ownedPass[msg.sender] += _amount;\r\n    }\r\n\r\n    function burnPass(uint256 _amount) public {\r\n        _ownedPass[msg.sender] -= _amount;\r\n    }\r\n\r\n    function getPassAmount(address owner) public view returns(uint){\r\n        return _ownedPass[owner];\r\n    }\r\n}",
  "sourcePath": "D:\\Homework\\Dump-Block\\solidity\\contracts\\DumpBlockAccount.sol",
  "compiler": {
    "name": "solc",
    "version": "0.8.3+commit.8d00100c.Emscripten.clang"
  },
  "schemaVersion": "3.4.6",
  "updatedAt": "2022-06-05T10:11:03.147Z",
  "networkType": "ethereum",
  "devdoc": {
    "kind": "dev",
    "methods": {
      "allowance(address,address)": {
        "details": "See {IERC20-allowance}."
      },
      "approve(address,uint256)": {
        "details": "See {IERC20-approve}. NOTE: If `amount` is the maximum `uint256`, the allowance is not updated on `transferFrom`. This is semantically equivalent to an infinite approval. Requirements: - `spender` cannot be the zero address."
      },
      "balanceOf(address)": {
        "details": "See {IERC20-balanceOf}."
      },
      "decimals()": {
        "details": "Returns the number of decimals used to get its user representation. For example, if `decimals` equals `2`, a balance of `505` tokens should be displayed to a user as `5.05` (`505 / 10 ** 2`). Tokens usually opt for a value of 18, imitating the relationship between Ether and Wei. This is the value {ERC20} uses, unless this function is overridden; NOTE: This information is only used for _display_ purposes: it in no way affects any of the arithmetic of the contract, including {IERC20-balanceOf} and {IERC20-transfer}."
      },
      "decreaseAllowance(address,uint256)": {
        "details": "Atomically decreases the allowance granted to `spender` by the caller. This is an alternative to {approve} that can be used as a mitigation for problems described in {IERC20-approve}. Emits an {Approval} event indicating the updated allowance. Requirements: - `spender` cannot be the zero address. - `spender` must have allowance for the caller of at least `subtractedValue`."
      },
      "increaseAllowance(address,uint256)": {
        "details": "Atomically increases the allowance granted to `spender` by the caller. This is an alternative to {approve} that can be used as a mitigation for problems described in {IERC20-approve}. Emits an {Approval} event indicating the updated allowance. Requirements: - `spender` cannot be the zero address."
      },
      "name()": {
        "details": "Returns the name of the token."
      },
      "symbol()": {
        "details": "Returns the symbol of the token, usually a shorter version of the name."
      },
      "totalSupply()": {
        "details": "See {IERC20-totalSupply}."
      },
      "transfer(address,uint256)": {
        "details": "See {IERC20-transfer}. Requirements: - `to` cannot be the zero address. - the caller must have a balance of at least `amount`."
      },
      "transferFrom(address,address,uint256)": {
        "details": "See {IERC20-transferFrom}. Emits an {Approval} event indicating the updated allowance. This is not required by the EIP. See the note at the beginning of {ERC20}. NOTE: Does not update the allowance if the current allowance is the maximum `uint256`. Requirements: - `from` and `to` cannot be the zero address. - `from` must have a balance of at least `amount`. - the caller must have allowance for ``from``'s tokens of at least `amount`."
      }
    },
    "version": 1
  },
  "userdoc": {
    "kind": "user",
    "methods": {},
    "version": 1
  }
}