{
  "contractName": "DumpBlockAccount",
  "abi": [
    {
      "inputs": [
        {
          "internalType": "address",
          "name": "_token",
          "type": "address"
        }
      ],
      "stateMutability": "nonpayable",
      "type": "constructor"
    },
    {
      "anonymous": false,
      "inputs": [
        {
          "indexed": true,
          "internalType": "address",
          "name": "owner",
          "type": "address"
        },
        {
          "indexed": true,
          "internalType": "address",
          "name": "spender",
          "type": "address"
        },
        {
          "indexed": false,
          "internalType": "uint256",
          "name": "value",
          "type": "uint256"
        }
      ],
      "name": "Approval",
      "type": "event"
    },
    {
      "anonymous": false,
      "inputs": [
        {
          "indexed": true,
          "internalType": "address",
          "name": "from",
          "type": "address"
        },
        {
          "indexed": true,
          "internalType": "address",
          "name": "to",
          "type": "address"
        },
        {
          "indexed": false,
          "internalType": "uint256",
          "name": "value",
          "type": "uint256"
        }
      ],
      "name": "Transfer",
      "type": "event"
    },
    {
      "inputs": [
        {
          "internalType": "address",
          "name": "owner",
          "type": "address"
        },
        {
          "internalType": "address",
          "name": "spender",
          "type": "address"
        }
      ],
      "name": "allowance",
      "outputs": [
        {
          "internalType": "uint256",
          "name": "",
          "type": "uint256"
        }
      ],
      "stateMutability": "view",
      "type": "function",
      "constant": true
    },
    {
      "inputs": [
        {
          "internalType": "address",
          "name": "spender",
          "type": "address"
        },
        {
          "internalType": "uint256",
          "name": "amount",
          "type": "uint256"
        }
      ],
      "name": "approve",
      "outputs": [
        {
          "internalType": "bool",
          "name": "",
          "type": "bool"
        }
      ],
      "stateMutability": "nonpayable",
      "type": "function"
    },
    {
      "inputs": [
        {
          "internalType": "address",
          "name": "account",
          "type": "address"
        }
      ],
      "name": "balanceOf",
      "outputs": [
        {
          "internalType": "uint256",
          "name": "",
          "type": "uint256"
        }
      ],
      "stateMutability": "view",
      "type": "function",
      "constant": true
    },
    {
      "inputs": [],
      "name": "decimals",
      "outputs": [
        {
          "internalType": "uint8",
          "name": "",
          "type": "uint8"
        }
      ],
      "stateMutability": "view",
      "type": "function",
      "constant": true
    },
    {
      "inputs": [
        {
          "internalType": "address",
          "name": "spender",
          "type": "address"
        },
        {
          "internalType": "uint256",
          "name": "subtractedValue",
          "type": "uint256"
        }
      ],
      "name": "decreaseAllowance",
      "outputs": [
        {
          "internalType": "bool",
          "name": "",
          "type": "bool"
        }
      ],
      "stateMutability": "nonpayable",
      "type": "function"
    },
    {
      "inputs": [
        {
          "internalType": "address",
          "name": "spender",
          "type": "address"
        },
        {
          "internalType": "uint256",
          "name": "addedValue",
          "type": "uint256"
        }
      ],
      "name": "increaseAllowance",
      "outputs": [
        {
          "internalType": "bool",
          "name": "",
          "type": "bool"
        }
      ],
      "stateMutability": "nonpayable",
      "type": "function"
    },
    {
      "inputs": [],
      "name": "name",
      "outputs": [
        {
          "internalType": "string",
          "name": "",
          "type": "string"
        }
      ],
      "stateMutability": "view",
      "type": "function",
      "constant": true
    },
    {
      "inputs": [],
      "name": "symbol",
      "outputs": [
        {
          "internalType": "string",
          "name": "",
          "type": "string"
        }
      ],
      "stateMutability": "view",
      "type": "function",
      "constant": true
    },
    {
      "inputs": [],
      "name": "token",
      "outputs": [
        {
          "internalType": "contract IERC20",
          "name": "",
          "type": "address"
        }
      ],
      "stateMutability": "view",
      "type": "function",
      "constant": true
    },
    {
      "inputs": [],
      "name": "totalSupply",
      "outputs": [
        {
          "internalType": "uint256",
          "name": "",
          "type": "uint256"
        }
      ],
      "stateMutability": "view",
      "type": "function",
      "constant": true
    },
    {
      "inputs": [
        {
          "internalType": "address",
          "name": "to",
          "type": "address"
        },
        {
          "internalType": "uint256",
          "name": "amount",
          "type": "uint256"
        }
      ],
      "name": "transfer",
      "outputs": [
        {
          "internalType": "bool",
          "name": "",
          "type": "bool"
        }
      ],
      "stateMutability": "nonpayable",
      "type": "function"
    },
    {
      "inputs": [
        {
          "internalType": "address",
          "name": "from",
          "type": "address"
        },
        {
          "internalType": "address",
          "name": "to",
          "type": "address"
        },
        {
          "internalType": "uint256",
          "name": "amount",
          "type": "uint256"
        }
      ],
      "name": "transferFrom",
      "outputs": [
        {
          "internalType": "bool",
          "name": "",
          "type": "bool"
        }
      ],
      "stateMutability": "nonpayable",
      "type": "function"
    },
    {
      "inputs": [],
      "name": "balance",
      "outputs": [
        {
          "internalType": "uint256",
          "name": "",
          "type": "uint256"
        }
      ],
      "stateMutability": "view",
      "type": "function",
      "constant": true
    },
    {
      "inputs": [
        {
          "internalType": "uint256",
          "name": "_amount",
          "type": "uint256"
        }
      ],
      "name": "deposit",
      "outputs": [],
      "stateMutability": "nonpayable",
      "type": "function"
    },
    {
      "inputs": [
        {
          "internalType": "uint256",
          "name": "_amount",
          "type": "uint256"
        }
      ],
      "name": "withdraw",
      "outputs": [],
      "stateMutability": "nonpayable",
      "type": "function"
    }
  ],
  "bytecode": "0x60806040523480156200001157600080fd5b506040516200242e3803806200242e8339818101604052810190620000379190620001e6565b6040518060400160405280601181526020017f44756d70426c6f636b204163636f756e740000000000000000000000000000008152506040518060400160405280600481526020017f44425441000000000000000000000000000000000000000000000000000000008152508160039080519060200190620000bb9291906200011f565b508060049080519060200190620000d49291906200011f565b50505080600560006101000a81548173ffffffffffffffffffffffffffffffffffffffff021916908373ffffffffffffffffffffffffffffffffffffffff16021790555050620002c5565b8280546200012d9062000246565b90600052602060002090601f0160209004810192826200015157600085556200019d565b82601f106200016c57805160ff19168380011785556200019d565b828001600101855582156200019d579182015b828111156200019c5782518255916020019190600101906200017f565b5b509050620001ac9190620001b0565b5090565b5b80821115620001cb576000816000905550600101620001b1565b5090565b600081519050620001e081620002ab565b92915050565b600060208284031215620001f957600080fd5b60006200020984828501620001cf565b91505092915050565b60006200021f8262000226565b9050919050565b600073ffffffffffffffffffffffffffffffffffffffff82169050919050565b600060028204905060018216806200025f57607f821691505b602082108114156200027657620002756200027c565b5b50919050565b7f4e487b7100000000000000000000000000000000000000000000000000000000600052602260045260246000fd5b620002b68162000212565b8114620002c257600080fd5b50565b61215980620002d56000396000f3fe608060405234801561001057600080fd5b50600436106100f55760003560e01c806370a0823111610097578063b69ef8a811610066578063b69ef8a8146102ae578063b6b55f25146102cc578063dd62ed3e146102e8578063fc0c546a14610318576100f5565b806370a082311461020057806395d89b4114610230578063a457c2d71461024e578063a9059cbb1461027e576100f5565b806323b872dd116100d357806323b872dd146101665780632e1a7d4d14610196578063313ce567146101b257806339509351146101d0576100f5565b806306fdde03146100fa578063095ea7b31461011857806318160ddd14610148575b600080fd5b610102610336565b60405161010f9190611903565b60405180910390f35b610132600480360381019061012d91906114e5565b6103c8565b60405161013f91906118cd565b60405180910390f35b6101506103eb565b60405161015d9190611ae5565b60405180910390f35b610180600480360381019061017b9190611496565b6103f5565b60405161018d91906118cd565b60405180910390f35b6101b060048036038101906101ab919061154a565b610424565b005b6101ba61047e565b6040516101c79190611b00565b60405180910390f35b6101ea60048036038101906101e591906114e5565b610487565b6040516101f791906118cd565b60405180910390f35b61021a60048036038101906102159190611431565b6104be565b6040516102279190611ae5565b60405180910390f35b610238610506565b6040516102459190611903565b60405180910390f35b610268600480360381019061026391906114e5565b610598565b60405161027591906118cd565b60405180910390f35b610298600480360381019061029391906114e5565b61060f565b6040516102a591906118cd565b60405180910390f35b6102b6610632565b6040516102c39190611ae5565b60405180910390f35b6102e660048036038101906102e1919061154a565b6106e4565b005b61030260048036038101906102fd919061145a565b610783565b60405161030f9190611ae5565b60405180910390f35b61032061080a565b60405161032d91906118e8565b60405180910390f35b60606003805461034590611c83565b80601f016020809104026020016040519081016040528092919081815260200182805461037190611c83565b80156103be5780601f10610393576101008083540402835291602001916103be565b820191906000526020600020905b8154815290600101906020018083116103a157829003601f168201915b5050505050905090565b6000806103d3610830565b90506103e0818585610838565b600191505092915050565b6000600254905090565b600080610400610830565b905061040d858285610a03565b610418858585610a8f565b60019150509392505050565b61042e3382610d10565b61047b3382600560009054906101000a900473ffffffffffffffffffffffffffffffffffffffff1673ffffffffffffffffffffffffffffffffffffffff16610ee79092919063ffffffff16565b50565b60006012905090565b600080610492610830565b90506104b38185856104a48589610783565b6104ae9190611b4d565b610838565b600191505092915050565b60008060008373ffffffffffffffffffffffffffffffffffffffff1673ffffffffffffffffffffffffffffffffffffffff168152602001908152602001600020549050919050565b60606004805461051590611c83565b80601f016020809104026020016040519081016040528092919081815260200182805461054190611c83565b801561058e5780601f106105635761010080835404028352916020019161058e565b820191906000526020600020905b81548152906001019060200180831161057157829003601f168201915b5050505050905090565b6000806105a3610830565b905060006105b18286610783565b9050838110156105f6576040517f08c379a00000000000000000000000000000000000000000000000000000000081526004016105ed90611aa5565b60405180910390fd5b6106038286868403610838565b60019250505092915050565b60008061061a610830565b9050610627818585610a8f565b600191505092915050565b6000600560009054906101000a900473ffffffffffffffffffffffffffffffffffffffff1673ffffffffffffffffffffffffffffffffffffffff166370a08231306040518263ffffffff1660e01b815260040161068f9190611852565b60206040518083038186803b1580156106a757600080fd5b505afa1580156106bb573d6000803e3d6000fd5b505050506040513d601f19601f820116820180604052508101906106df9190611573565b905090565b60008111610727576040517f08c379a000000000000000000000000000000000000000000000000000000000815260040161071e906119e5565b60405180910390fd5b610776333083600560009054906101000a900473ffffffffffffffffffffffffffffffffffffffff1673ffffffffffffffffffffffffffffffffffffffff16610f6d909392919063ffffffff16565b6107803382610ff6565b50565b6000600160008473ffffffffffffffffffffffffffffffffffffffff1673ffffffffffffffffffffffffffffffffffffffff16815260200190815260200160002060008373ffffffffffffffffffffffffffffffffffffffff1673ffffffffffffffffffffffffffffffffffffffff16815260200190815260200160002054905092915050565b600560009054906101000a900473ffffffffffffffffffffffffffffffffffffffff1681565b600033905090565b600073ffffffffffffffffffffffffffffffffffffffff168373ffffffffffffffffffffffffffffffffffffffff1614156108a8576040517f08c379a000000000000000000000000000000000000000000000000000000000815260040161089f90611a45565b60405180910390fd5b600073ffffffffffffffffffffffffffffffffffffffff168273ffffffffffffffffffffffffffffffffffffffff161415610918576040517f08c379a000000000000000000000000000000000000000000000000000000000815260040161090f90611965565b60405180910390fd5b80600160008573ffffffffffffffffffffffffffffffffffffffff1673ffffffffffffffffffffffffffffffffffffffff16815260200190815260200160002060008473ffffffffffffffffffffffffffffffffffffffff1673ffffffffffffffffffffffffffffffffffffffff168152602001908152602001600020819055508173ffffffffffffffffffffffffffffffffffffffff168373ffffffffffffffffffffffffffffffffffffffff167f8c5be1e5ebec7d5bd14f71427d1e84f3dd0314c0f7b2291e5b200ac8c7c3b925836040516109f69190611ae5565b60405180910390a3505050565b6000610a0f8484610783565b90507fffffffffffffffffffffffffffffffffffffffffffffffffffffffffffffffff8114610a895781811015610a7b576040517f08c379a0000000000000000000000000000000000000000000000000000000008152600401610a7290611985565b60405180910390fd5b610a888484848403610838565b5b50505050565b600073ffffffffffffffffffffffffffffffffffffffff168373ffffffffffffffffffffffffffffffffffffffff161415610aff576040517f08c379a0000000000000000000000000000000000000000000000000000000008152600401610af690611a25565b60405180910390fd5b600073ffffffffffffffffffffffffffffffffffffffff168273ffffffffffffffffffffffffffffffffffffffff161415610b6f576040517f08c379a0000000000000000000000000000000000000000000000000000000008152600401610b6690611925565b60405180910390fd5b610b7a838383611156565b60008060008573ffffffffffffffffffffffffffffffffffffffff1673ffffffffffffffffffffffffffffffffffffffff16815260200190815260200160002054905081811015610c00576040517f08c379a0000000000000000000000000000000000000000000000000000000008152600401610bf7906119a5565b60405180910390fd5b8181036000808673ffffffffffffffffffffffffffffffffffffffff1673ffffffffffffffffffffffffffffffffffffffff16815260200190815260200160002081905550816000808573ffffffffffffffffffffffffffffffffffffffff1673ffffffffffffffffffffffffffffffffffffffff1681526020019081526020016000206000828254610c939190611b4d565b925050819055508273ffffffffffffffffffffffffffffffffffffffff168473ffffffffffffffffffffffffffffffffffffffff167fddf252ad1be2c89b69c2b068fc378daa952ba7f163c4a11628f55a4df523b3ef84604051610cf79190611ae5565b60405180910390a3610d0a84848461115b565b50505050565b600073ffffffffffffffffffffffffffffffffffffffff168273ffffffffffffffffffffffffffffffffffffffff161415610d80576040517f08c379a0000000000000000000000000000000000000000000000000000000008152600401610d7790611a05565b60405180910390fd5b610d8c82600083611156565b60008060008473ffffffffffffffffffffffffffffffffffffffff1673ffffffffffffffffffffffffffffffffffffffff16815260200190815260200160002054905081811015610e12576040517f08c379a0000000000000000000000000000000000000000000000000000000008152600401610e0990611945565b60405180910390fd5b8181036000808573ffffffffffffffffffffffffffffffffffffffff1673ffffffffffffffffffffffffffffffffffffffff168152602001908152602001600020819055508160026000828254610e699190611ba3565b92505081905550600073ffffffffffffffffffffffffffffffffffffffff168373ffffffffffffffffffffffffffffffffffffffff167fddf252ad1be2c89b69c2b068fc378daa952ba7f163c4a11628f55a4df523b3ef84604051610ece9190611ae5565b60405180910390a3610ee28360008461115b565b505050565b610f688363a9059cbb60e01b8484604051602401610f069291906118a4565b604051602081830303815290604052907bffffffffffffffffffffffffffffffffffffffffffffffffffffffff19166020820180517bffffffffffffffffffffffffffffffffffffffffffffffffffffffff8381831617835250505050611160565b505050565b610ff0846323b872dd60e01b858585604051602401610f8e9392919061186d565b604051602081830303815290604052907bffffffffffffffffffffffffffffffffffffffffffffffffffffffff19166020820180517bffffffffffffffffffffffffffffffffffffffffffffffffffffffff8381831617835250505050611160565b50505050565b600073ffffffffffffffffffffffffffffffffffffffff168273ffffffffffffffffffffffffffffffffffffffff161415611066576040517f08c379a000000000000000000000000000000000000000000000000000000000815260040161105d90611ac5565b60405180910390fd5b61107260008383611156565b80600260008282546110849190611b4d565b92505081905550806000808473ffffffffffffffffffffffffffffffffffffffff1673ffffffffffffffffffffffffffffffffffffffff16815260200190815260200160002060008282546110d99190611b4d565b925050819055508173ffffffffffffffffffffffffffffffffffffffff16600073ffffffffffffffffffffffffffffffffffffffff167fddf252ad1be2c89b69c2b068fc378daa952ba7f163c4a11628f55a4df523b3ef8360405161113e9190611ae5565b60405180910390a36111526000838361115b565b5050565b505050565b505050565b60006111c2826040518060400160405280602081526020017f5361666545524332303a206c6f772d6c6576656c2063616c6c206661696c65648152508573ffffffffffffffffffffffffffffffffffffffff166112279092919063ffffffff16565b905060008151111561122257808060200190518101906111e29190611521565b611221576040517f08c379a000000000000000000000000000000000000000000000000000000000815260040161121890611a85565b60405180910390fd5b5b505050565b6060611236848460008561123f565b90509392505050565b606082471015611284576040517f08c379a000000000000000000000000000000000000000000000000000000000815260040161127b906119c5565b60405180910390fd5b61128d85611353565b6112cc576040517f08c379a00000000000000000000000000000000000000000000000000000000081526004016112c390611a65565b60405180910390fd5b6000808673ffffffffffffffffffffffffffffffffffffffff1685876040516112f5919061183b565b60006040518083038185875af1925050503d8060008114611332576040519150601f19603f3d011682016040523d82523d6000602084013e611337565b606091505b5091509150611347828286611376565b92505050949350505050565b6000808273ffffffffffffffffffffffffffffffffffffffff163b119050919050565b60608315611386578290506113d6565b6000835111156113995782518084602001fd5b816040517f08c379a00000000000000000000000000000000000000000000000000000000081526004016113cd9190611903565b60405180910390fd5b9392505050565b6000813590506113ec816120de565b92915050565b600081519050611401816120f5565b92915050565b6000813590506114168161210c565b92915050565b60008151905061142b8161210c565b92915050565b60006020828403121561144357600080fd5b6000611451848285016113dd565b91505092915050565b6000806040838503121561146d57600080fd5b600061147b858286016113dd565b925050602061148c858286016113dd565b9150509250929050565b6000806000606084860312156114ab57600080fd5b60006114b9868287016113dd565b93505060206114ca868287016113dd565b92505060406114db86828701611407565b9150509250925092565b600080604083850312156114f857600080fd5b6000611506858286016113dd565b925050602061151785828601611407565b9150509250929050565b60006020828403121561153357600080fd5b6000611541848285016113f2565b91505092915050565b60006020828403121561155c57600080fd5b600061156a84828501611407565b91505092915050565b60006020828403121561158557600080fd5b60006115938482850161141c565b91505092915050565b6115a581611bd7565b82525050565b6115b481611be9565b82525050565b60006115c582611b1b565b6115cf8185611b31565b93506115df818560208601611c50565b80840191505092915050565b6115f481611c2c565b82525050565b600061160582611b26565b61160f8185611b3c565b935061161f818560208601611c50565b61162881611d13565b840191505092915050565b6000611640602383611b3c565b915061164b82611d24565b604082019050919050565b6000611663602283611b3c565b915061166e82611d73565b604082019050919050565b6000611686602283611b3c565b915061169182611dc2565b604082019050919050565b60006116a9601d83611b3c565b91506116b482611e11565b602082019050919050565b60006116cc602683611b3c565b91506116d782611e3a565b604082019050919050565b60006116ef602683611b3c565b91506116fa82611e89565b604082019050919050565b6000611712601583611b3c565b915061171d82611ed8565b602082019050919050565b6000611735602183611b3c565b915061174082611f01565b604082019050919050565b6000611758602583611b3c565b915061176382611f50565b604082019050919050565b600061177b602483611b3c565b915061178682611f9f565b604082019050919050565b600061179e601d83611b3c565b91506117a982611fee565b602082019050919050565b60006117c1602a83611b3c565b91506117cc82612017565b604082019050919050565b60006117e4602583611b3c565b91506117ef82612066565b604082019050919050565b6000611807601f83611b3c565b9150611812826120b5565b602082019050919050565b61182681611c15565b82525050565b61183581611c1f565b82525050565b600061184782846115ba565b915081905092915050565b6000602082019050611867600083018461159c565b92915050565b6000606082019050611882600083018661159c565b61188f602083018561159c565b61189c604083018461181d565b949350505050565b60006040820190506118b9600083018561159c565b6118c6602083018461181d565b9392505050565b60006020820190506118e260008301846115ab565b92915050565b60006020820190506118fd60008301846115eb565b92915050565b6000602082019050818103600083015261191d81846115fa565b905092915050565b6000602082019050818103600083015261193e81611633565b9050919050565b6000602082019050818103600083015261195e81611656565b9050919050565b6000602082019050818103600083015261197e81611679565b9050919050565b6000602082019050818103600083015261199e8161169c565b9050919050565b600060208201905081810360008301526119be816116bf565b9050919050565b600060208201905081810360008301526119de816116e2565b9050919050565b600060208201905081810360008301526119fe81611705565b9050919050565b60006020820190508181036000830152611a1e81611728565b9050919050565b60006020820190508181036000830152611a3e8161174b565b9050919050565b60006020820190508181036000830152611a5e8161176e565b9050919050565b60006020820190508181036000830152611a7e81611791565b9050919050565b60006020820190508181036000830152611a9e816117b4565b9050919050565b60006020820190508181036000830152611abe816117d7565b9050919050565b60006020820190508181036000830152611ade816117fa565b9050919050565b6000602082019050611afa600083018461181d565b92915050565b6000602082019050611b15600083018461182c565b92915050565b600081519050919050565b600081519050919050565b600081905092915050565b600082825260208201905092915050565b6000611b5882611c15565b9150611b6383611c15565b9250827fffffffffffffffffffffffffffffffffffffffffffffffffffffffffffffffff03821115611b9857611b97611cb5565b5b828201905092915050565b6000611bae82611c15565b9150611bb983611c15565b925082821015611bcc57611bcb611cb5565b5b828203905092915050565b6000611be282611bf5565b9050919050565b60008115159050919050565b600073ffffffffffffffffffffffffffffffffffffffff82169050919050565b6000819050919050565b600060ff82169050919050565b6000611c3782611c3e565b9050919050565b6000611c4982611bf5565b9050919050565b60005b83811015611c6e578082015181840152602081019050611c53565b83811115611c7d576000848401525b50505050565b60006002820490506001821680611c9b57607f821691505b60208210811415611caf57611cae611ce4565b5b50919050565b7f4e487b7100000000000000000000000000000000000000000000000000000000600052601160045260246000fd5b7f4e487b7100000000000000000000000000000000000000000000000000000000600052602260045260246000fd5b6000601f19601f8301169050919050565b7f45524332303a207472616e7366657220746f20746865207a65726f206164647260008201527f6573730000000000000000000000000000000000000000000000000000000000602082015250565b7f45524332303a206275726e20616d6f756e7420657863656564732062616c616e60008201527f6365000000000000000000000000000000000000000000000000000000000000602082015250565b7f45524332303a20617070726f766520746f20746865207a65726f20616464726560008201527f7373000000000000000000000000000000000000000000000000000000000000602082015250565b7f45524332303a20696e73756666696369656e7420616c6c6f77616e6365000000600082015250565b7f45524332303a207472616e7366657220616d6f756e742065786365656473206260008201527f616c616e63650000000000000000000000000000000000000000000000000000602082015250565b7f416464726573733a20696e73756666696369656e742062616c616e636520666f60008201527f722063616c6c0000000000000000000000000000000000000000000000000000602082015250565b7f616d6f756e742063616e6e6f74206265207a65726f0000000000000000000000600082015250565b7f45524332303a206275726e2066726f6d20746865207a65726f2061646472657360008201527f7300000000000000000000000000000000000000000000000000000000000000602082015250565b7f45524332303a207472616e736665722066726f6d20746865207a65726f20616460008201527f6472657373000000000000000000000000000000000000000000000000000000602082015250565b7f45524332303a20617070726f76652066726f6d20746865207a65726f2061646460008201527f7265737300000000000000000000000000000000000000000000000000000000602082015250565b7f416464726573733a2063616c6c20746f206e6f6e2d636f6e7472616374000000600082015250565b7f5361666545524332303a204552433230206f7065726174696f6e20646964206e60008201527f6f74207375636365656400000000000000000000000000000000000000000000602082015250565b7f45524332303a2064656372656173656420616c6c6f77616e63652062656c6f7760008201527f207a65726f000000000000000000000000000000000000000000000000000000602082015250565b7f45524332303a206d696e7420746f20746865207a65726f206164647265737300600082015250565b6120e781611bd7565b81146120f257600080fd5b50565b6120fe81611be9565b811461210957600080fd5b50565b61211581611c15565b811461212057600080fd5b5056fea264697066735822122079ea8a6b296eacc3e2ca4c4512a45fd2b12d658109ff1cccfc1f62f921713cc964736f6c63430008030033",
  "immutableReferences": {},
  "source": "// SPDX-License-Identifier: UNLICENSED\r\n\r\npragma solidity ^0.8.0;\r\n\r\nimport \"@openzeppelin/contracts/token/ERC20/IERC20.sol\";\r\nimport \"@openzeppelin/contracts/utils/Address.sol\";\r\nimport \"@openzeppelin/contracts/token/ERC20/utils/SafeERC20.sol\";\r\nimport \"@openzeppelin/contracts/token/ERC20/ERC20.sol\";\r\n\r\ncontract DumpBlockAccount is ERC20 {\r\n    using Address for address;\r\n    using SafeERC20 for IERC20;\r\n\r\n    IERC20 public token;\r\n\r\n    constructor(address _token) ERC20(\"DumpBlock Account\", \"DBTA\") {\r\n        token = IERC20(_token);\r\n    }\r\n\r\n\r\n    function balance() public view returns (uint256) {\r\n        return token.balanceOf(address(this));\r\n    }\r\n\r\n    function deposit(uint256 _amount) public {\r\n        require(_amount > 0, \"amount cannot be zero\");\r\n        token.safeTransferFrom(msg.sender, address(this), _amount);\r\n        _mint(msg.sender, _amount);\r\n    }\r\n\r\n    function withdraw(uint256 _amount) public {\r\n        _burn(msg.sender, _amount);\r\n        token.safeTransfer(msg.sender, _amount);\r\n    }\r\n}",
  "sourcePath": "D:\\Homework\\Dump-Block\\solidity\\contracts\\DumpBlockAccount.sol",
  "compiler": {
    "name": "solc",
    "version": "0.8.3+commit.8d00100c.Emscripten.clang"
  },
  "schemaVersion": "3.4.6",
  "updatedAt": "2022-05-30T01:42:53.336Z",
  "networkType": "ethereum",
  "devdoc": {
    "kind": "dev",
    "methods": {
      "allowance(address,address)": {
        "details": "See {IERC20-allowance}."
      },
      "approve(address,uint256)": {
        "details": "See {IERC20-approve}. NOTE: If `amount` is the maximum `uint256`, the allowance is not updated on `transferFrom`. This is semantically equivalent to an infinite approval. Requirements: - `spender` cannot be the zero address."
      },
      "balanceOf(address)": {
        "details": "See {IERC20-balanceOf}."
      },
      "decimals()": {
        "details": "Returns the number of decimals used to get its user representation. For example, if `decimals` equals `2`, a balance of `505` tokens should be displayed to a user as `5.05` (`505 / 10 ** 2`). Tokens usually opt for a value of 18, imitating the relationship between Ether and Wei. This is the value {ERC20} uses, unless this function is overridden; NOTE: This information is only used for _display_ purposes: it in no way affects any of the arithmetic of the contract, including {IERC20-balanceOf} and {IERC20-transfer}."
      },
      "decreaseAllowance(address,uint256)": {
        "details": "Atomically decreases the allowance granted to `spender` by the caller. This is an alternative to {approve} that can be used as a mitigation for problems described in {IERC20-approve}. Emits an {Approval} event indicating the updated allowance. Requirements: - `spender` cannot be the zero address. - `spender` must have allowance for the caller of at least `subtractedValue`."
      },
      "increaseAllowance(address,uint256)": {
        "details": "Atomically increases the allowance granted to `spender` by the caller. This is an alternative to {approve} that can be used as a mitigation for problems described in {IERC20-approve}. Emits an {Approval} event indicating the updated allowance. Requirements: - `spender` cannot be the zero address."
      },
      "name()": {
        "details": "Returns the name of the token."
      },
      "symbol()": {
        "details": "Returns the symbol of the token, usually a shorter version of the name."
      },
      "totalSupply()": {
        "details": "See {IERC20-totalSupply}."
      },
      "transfer(address,uint256)": {
        "details": "See {IERC20-transfer}. Requirements: - `to` cannot be the zero address. - the caller must have a balance of at least `amount`."
      },
      "transferFrom(address,address,uint256)": {
        "details": "See {IERC20-transferFrom}. Emits an {Approval} event indicating the updated allowance. This is not required by the EIP. See the note at the beginning of {ERC20}. NOTE: Does not update the allowance if the current allowance is the maximum `uint256`. Requirements: - `from` and `to` cannot be the zero address. - `from` must have a balance of at least `amount`. - the caller must have allowance for ``from``'s tokens of at least `amount`."
      }
    },
    "version": 1
  },
  "userdoc": {
    "kind": "user",
    "methods": {},
    "version": 1
  }
}